:100000000C94A0010C94C8010C94C8010C94C80174
:100010000C94C8010C94C8010C94C8010C947A0C7F
:100020000C94C8010C94C8010C94C8010C94C8012C
:100030000C94C8010C94C8010C94C8010C94C8011C
:100040000C94EC0E0C94C8010C94BD090C940B0A92
:100050000C94C8010C94C8010C94C8010C94C801FC
:100060000C94C8010C94C8010B024B029302BA0213
:1000700000004B029302E402100300004B029302C3
:10008000E402100300004B029302E402100300009C
:100090000B024B029302BA0200000B02BA02700379
:1000A000BA020B02EE011003BA029302100393028C
:1000B0000B02B801BA020B02BA027003BA020B02B9
:1000C000EE011003BA0293020B024B029302BA0232
:1000D00008080808010808080801080808080408B2
:1000E00008080804080808080108040804080402AD
:1000F00008040804080402080408040804020804A8
:100100000804080220060000200649070000E00657
:1001100020067505E00620060810100220080808D1
:100120000802BA02BA02BA02A4037505DD049704F4
:10013000170449077505DD04970417044907750579
:10014000DD049704DD0417040000BA02BA02BA0203
:10015000A4037505DD049704170449077505DD043C
:100160009704170449077505DD049704DD04170497
:100170000808080102080808020408080802040820
:100180000808020408080801020808080204080810
:10019000080204080808027201B8010000EE01001C
:1001A000007201EE0100002A02000072012A020022
:1001B000004B020000720100002A02EE01B8017239
:1001C000014A015D0172018801EE01B801880172E6
:1001D00001B80100007201B8010000EE01000072D8
:1001E00001EE0100002A02000072012A0200004B09
:1001F000020000720100002A02EE01B80172014AF9
:10020000015D0172018801EE01B80188017201B837
:1002100001101010100810101010081010101010FD
:1002200010100810101010101010101010101010D6
:1002300010101010081010101008101010101010CE
:1002400010081010101010101010101010101704BB
:100250002705C805E0062006270517047003E402F9
:10026000E402E402100300000000E402E402E402FD
:100270001003A4031704170417040B020404040852
:100280000404040808080802080808080808020806
:10029000080804A4033F03A4033F03E402BA026E68
:1002A000024B026E02A4033F03A403BA02E4024B12
:1002B000026E024B02BA023F03DC03970475053F4E
:1002C00003BA0210031010022020201002021010A6
:1002D00002080808020808080808040202010200CF
:1002E000000000240027002A00000000002500284C
:1002F000002B000000000023002600290004040455
:1003000004040404040202020202020303030303BE
:10031000030102040810204080010204081020019B
:10032000020408102000000007000201000003047E
:1003300006000000000000000000AC04770BA504DC
:1003400011241FBECFEFD8E0DEBFCDBF11E0A0E08B
:10035000B1E0E2E6F6E202C005900D92A23EB107DE
:10036000D9F713E0A2EEB1E001C01D92A132B107AE
:10037000E1F713E0CEE3D3E004C02297FE010E9430
:10038000E912CA33D107C9F70E94CD0B0C9424138C
:100390000C940000CF93DF93BC018230910510F4E0
:1003A00062E070E0A0911F03B0912003ED01E0E056
:1003B000F0E040E050E021C08881998186179707DE
:1003C00069F48A819B81309719F09383828304C0FA
:1003D0009093200380931F03FE0134C068177907B0
:1003E00038F44115510519F08417950708F4AC014C
:1003F000FE018A819B819C01E9012097E9F6411564
:100400005105A9F1CA01861B970B049708F4BA019C
:10041000E0E0F0E02AC08D919C9111978417950738
:10042000F9F46417750781F412968D919C911397D6
:10043000309719F09383828304C0909320038093B4
:100440001F03FD0132964CC0CA01861B970BFD01AC
:10045000E80FF91F6193719302978D939C9340C0AD
:10046000FD01828193819C01D9011097A1F68091B1
:100470001D0390911E03892B41F48091840190917A
:10048000850190931E0380931D0340918601509136
:1004900087014115510541F44DB75EB78091820146
:1004A00090918301481B590B20911D0330911E032D
:1004B000CA01821B930B8617970780F0AB014E5F32
:1004C0005F4F8417950750F0420F531F50931E0340
:1004D00040931D03F9016193719302C0E0E0F0E0E5
:1004E000CF01DF91CF910895CF93DF93009709F467
:1004F00050C0EC0122971B821A82A0911F03B09179
:100500002003109709F140E050E0AC17BD0708F157
:10051000BB83AA83FE0121913191E20FF31FAE1735
:10052000BF0779F48D919C911197280F391F2E5F89
:100530003F4F3983288312968D919C9113979B830B
:100540008A834115510571F4D0932003C0931F0392
:1005500020C012968D919C911397AD01009711F0D8
:10056000DC01D3CFFA01D383C28321913191E20F11
:10057000F31FCE17DF0769F488819981280F391F8F
:100580002E5F3F4FFA01318320838A819B819383C1
:100590008283DF91CF910895A0E0B0E0E2EDF2E038
:1005A0000C94EF126C01009729F4CB010E94CA0150
:1005B0006C01C1C08EEF882E8FEF982E8C0C9D1C85
:1005C0008601060F171F0815190508F4B2C0F401BB
:1005D000A081B181A617B707B8F0A530B10508F41E
:1005E000AAC0CD0104978617970708F4A4C01297F4
:1005F000A61BB70BF801A193B193D4016D937C9323
:10060000CF010E94740297C07B01EA1AFB0AEEEF49
:10061000FFEFEE0EFF1E36016A0E7B1EC0911F0318
:10062000D091200344245524AA24BB244AC0C615D3
:10063000D705E1F5488159814E155F05B8F1CA012A
:1006400004978E159F05B0F41296A40FB51FF40100
:10065000B183A0832A813B814114510431F0D2013E
:1006600013963C932E93129766C0309320032093E9
:100670001F0361C08A819B81F8019383828342506A
:1006800050404E195F09518340834114510431F0A9
:10069000D20113961C930E93129704C0109320035B
:1006A00000931F03F4017183608345C088819981A1
:1006B000A816B90608F45C012E018A819B819C0171
:1006C000E901209709F0B3CF80911D0390911E039B
:1006D00086159705E9F4A616B706D0F42091860191
:1006E000309187012115310541F42DB73EB7809136
:1006F000820190918301281B390B02171307C8F45C
:1007000010931E0300931D03D4016D937C9313C0BB
:10071000CB010E94CA01EC01009759F0F40140811D
:100720005181B6010E94A103C6010E9474026E01AC
:1007300002C0CC24DD24C601CDB7DEB7E0E10C94C5
:100740000B13FB01DC0102C001900D92415050409F
:10075000D8F70895FB01DC0101900D920020E1F72C
:100760000895CF92EF92FF920F931F93CF93DF9351
:100770008130910509F0CAC06F5F7F4F09F0DDC07D
:100780006CE0F62E02EE11E0D801EF2D1D92EA95F5
:10079000E9F7C80160E071E00E94001180918801D2
:1007A0008093E90188E690E09093EB018093EA0161
:1007B00080ED90E09093ED018093EC01F8013C9680
:1007C000DF018F2D1D928A95E9F7CF0167E071E077
:1007D0000E940011809189018093F50184E091E0ED
:1007E0009093F7018093F60188E191E09093F901ED
:1007F0008093F801F8017896DF018F2D1D928A957C
:10080000E9F7CF0160E171E00E94001180918A0157
:100810008093010282E291E09093030280930202AE
:1008200080E791E09093050280930402F801B4966A
:10083000DF018F2D1D928A95E9F7CF0169E171E003
:100840000E94001180918B0180930D0287E991E055
:1008500090930F0280930E0281E192E09093110237
:1008600080931002F801F096DF018F2D1D928A957A
:10087000E9F7CF0160E271E00E94001180918C01E4
:10088000809319028EE492E090931B0280931A02E7
:100890008CE792E090931D0280931C02045C1F4F32
:1008A000D8011D92FA94E9F7C80169E271E00E944B
:1008B000001180918D018093250283E992E090934D
:1008C00027028093260285EC92E090932902809380
:1008D00028028AE292E068E049E024E005E056E080
:1008E000E52E37E0C32E0E9483098FE392E06AE28F
:1008F00072E00E94800689E492E00E94160683E579
:1009000092E069E070E00E94660717C0892BA9F4A5
:100910006F5F7F4F91F489E492E00E941C068FE3A1
:1009200092E00E948C06CEE1D2E0CE010E943C1102
:100930002C97E1E0C63DDE07C1F7DF91CF911F9113
:100940000F91FF90EF90CF90089580E090E06FEFCF
:100950007FEF0E94B103089581E090E06FEF7FEF99
:100960000E94B1030895EF92FF920F931F937C01B1
:100970000AE212E0C80160E041E00E949608C80166
:100980006CE971E00E940C0CC80160E041E00E943B
:100990009608B701660F771F6E0D7F1D660F771FD4
:1009A000660F771F6E517E4FC8010E940F0C1F917A
:1009B0000F91FF90EF900895809151029091520213
:1009C0000197909352028093510297FF09C0809142
:1009D0008E0190918F010197909352028093510262
:1009E00080915102909152020E94B3040895809127
:1009F00051029091520201969093520280935102BB
:100A000020918E0130918F018217930724F010926C
:100A100052021092510280915102909152020E9412
:100A2000B3040895EF92FF920F931F93DF93CF9338
:100A3000CDB7DEB72C970FB6F894DEBF0FBECDBF93
:100A40000AE212E0C80160E041E00E949608C80195
:100A50006CE971E00E940C0CC80160E041E00E946A
:100A60009608C80161E371E00E940C0C809151026C
:100A700090915202BC01660F771F680F791F660FB5
:100A8000771F660F771F82EEE82E81E0F82E6E0D3D
:100A90007F1DC8010E940F0C80915102909152025B
:100AA0008C01000F111F080F191F000F111F000FDD
:100AB000111F0E0D1F1D7E010894E11CF11CC701C2
:100AC000B8010E943111F80187818887808591855E
:100AD0009A878987828593859C878B8783E592E0B7
:100AE000B7010E946A07C7010E943C112C960FB6FD
:100AF000F894DEBF0FBECDBFCF91DF911F910F9154
:100B0000FF90EF900895CF93DF93EC01611571058D
:100B100019F420E030E00FC0DB010D900020E9F770
:100B20001197A61BB70BE881F9810280F381E02DB4
:100B3000AD0109959C01C901DF91CF9108950F93F3
:100B40001F938DED92E040E855E260E070E00E9476
:100B5000460A8AE292E060E142E020E00E94CD088D
:100B600089E492E060E070E00E9422060FE312E068
:100B7000C80160E070E00E94980683E090E069E3BD
:100B800071E042E155E020E030E00E94EC069C017B
:100B900082E090E06EE371E04CED54E00E94EC06E0
:100BA0009C0181E090E068E471E047EF54E00E942E
:100BB000EC06BC01C8010E949206C8010E941E07F3
:100BC0001F910F910895CF93DF9389E492E00E94E3
:100BD0002A06EC018FEFCF3FD80729F18DED92E087
:100BE00062E571E00E94830589E492E00E94260696
:100BF000682F8DED92E00E94370B8DED92E06FE54E
:100C000071E00E9483058DED92E06C2F0E94370BFE
:100C10008DED92E061E671E00E9483058FE392E042
:100C2000BE010E94BB06DF91CF910895FC0181EBCC
:100C300091E0918380830895FC0181EB91E09183A1
:100C400080830895FC01778366830895FC01848185
:100C5000958108950F931F93CF93DF93EC018E81BD
:100C60000E94C50FAC018C839D8300E911E0F8015F
:100C700020E030E0808191814817590740F02F5FD4
:100C80003F4F329625303105A9F72FEF3FEF8A818C
:100C90009B812817390719F162E370E080E090E04A
:100CA0000E945A0F8E810E94C50FAC0120E030E0F7
:100CB000F801808191814817590748F02F5F3F4F15
:100CC0000E5F1F4F2530310599F72FEF3FEF8A81D7
:100CD0009B812817390719F03B832A8302C02FEF25
:100CE0003FEFC901DF91CF911F910F910895FC0152
:100CF00081EB91E091838083CF010E94DC0B08950A
:100D0000FC0189EB91E09183808375836483178272
:100D10001682118610860895FC0189EB91E091837B
:100D200080830895FC0177836683718760870895C7
:100D3000FC01738362830895DC011896ED91FC91A8
:100D40001997309729F41696ED91FC91179711C0D9
:100D50000680F781E02D309761F41696ED91FC91B5
:100D60001797309731F080859185009711F0FC013D
:100D7000FACFCF010895CF93DF93EC016230710574
:100D800091F06430710521F06130710511F516C0E4
:100D9000E885F9853097E9F00480F581E02D3097FA
:100DA000C1F0099516C0E885F985309721F0808556
:100DB0009185009729F48E819F8102C00E949C0634
:100DC00099878887E881F9810680F781E02DCE0137
:100DD0000995DF91CF910895CF92DF92EF92FF9224
:100DE0000F931F93CF93DF938C017B016A01E9017D
:100DF0008EE090E00E94DF0BFC018EE0DF011D928F
:100E00008A95E9F711830083F382E282D582C48256
:100E1000D187C08717821682209711F0FF83EE8357
:100E20001386128615861486CF01DF91CF911F910C
:100E30000F91FF90EF90DF90CF900895CF93DF93C5
:100E4000EC018C819D8160E04A810E9496088C8132
:100E50009D8163E671E00E940C0C8C819D8160E0B5
:100E60004A810E949608E885F9853097E9F08285E5
:100E70009385892B31F08C819D8164E771E00E941C
:100E80000C0CE885F985628173818C819D810E94BB
:100E90000C0CE885F98584859585892B59F08C8122
:100EA0009D8166E771E004C08C819D8168E771E0F7
:100EB0000E940C0CDF91CF910895FC0189EB91E029
:100EC00091838083CF010E94DC0B0895FC01718324
:100ED000608308958F929F92AF92BF92CF92DF92DC
:100EE000EF92FF920F931F93CF93DF934C016B010F
:100EF000DB0117968C91A82EBB24C0E0D0E03BC04C
:100F0000CE01880F991FD6011896ED91FC91199783
:100F1000E80FF91F259134911A96ED91FC911B97DA
:100F2000EC0FFD1FE49188EE93E06E2F70E00E94BD
:100F300097127B010027F7FC0095102FF4018081A8
:100F4000B901A80197010E94D60CC801B7010E94FF
:100F5000751126E636E646EA5FE30E9401120E941A
:100F60004211882777FD8095982F0E945A0F88E0BC
:100F70000E94630C2196CA15DB050CF4C1CFDF91EA
:100F8000CF911F910F91FF90EF90DF90CF90BF9086
:100F9000AF909F908F9008950F931F938C01FC0149
:100FA000868160E00E94531081E090E00E94800FF3
:100FB000F801868161E00E94531081E090E00E9478
:100FC000800FF801868160E00E94531084E690E073
:100FD0000E94800F1F910F910895CF92DF92EF92A0
:100FE000FF920F931F93CF93DF93D82EC92E282FF4
:100FF000392FC9018C01C0E0D0E0E62EFF24F801B2
:10100000878161E00E94E70FB7010C2E02C0759541
:1010100067950A94E2F76170F80187810E94531086
:1010200021960F5F1F4FC830D10549F78D2D9C2D9C
:101030000E94CC07DF91CF911F910F91FF90EF900D
:10104000DF90CF900895CF92DF92EF92FF920F93AF
:101050001F93CF93DF93D82EC92E282F392FC90184
:101060008C01C0E0D0E0E62EFF24F801878161E02A
:101070000E94E70FB7010C2E02C0759567950A9480
:10108000E2F76170F80187810E94531021960F5F8B
:101090001F4FC430D10549F78D2D9C2D0E94CC07E0
:1010A000DF91CF911F910F91FF90EF90DF90CF9044
:1010B00008951F93CF93DF93EC01162F8C81642F3B
:1010C0000E9453108D818F3F19F060E00E945310F1
:1010D0008F8584FF05C0CE01612F0E94ED070EC0F1
:1010E000612F70E084E0759567958A95E1F7CE01F0
:1010F0000E942308CE01612F0E942308DF91CF9127
:101100001F91089541E00E94590881E090E0089500
:1011100040E00E9459080895FC016089862F846090
:10112000808B6C60CF010E9488080895DF93CF9375
:10113000CDB7DEB728970FB6F894DEBF0FBECDBF90
:101140009C01FE013196A9ECB1E088E00D9001927E
:101150008150E1F7F9018389481710F0482F415079
:10116000E42FF0E0EE0FFF1FEC0FFD1F8181680FF1
:101170006068C9010E94880828960FB6F894DEBFFF
:101180000FBECDBFCF91DF91089561E00E94880826
:1011900080ED97E00E94800F0895CF93DF93EC01DC
:1011A000423018F08F8588608F874B8B1C8A2223F2
:1011B00029F0413019F48F8584608F8780E593ECA6
:1011C0000E94800F8C8160E00E9453108E8160E04D
:1011D0000E9453108D818F3F19F060E00E945310E0
:1011E0006F8564FD1DC0CE0163E00E94230884E981
:1011F00091E10E94800FCE0163E00E94230884E900
:1012000091E10E94800FCE0163E00E94230886E9ED
:1012100090E00E94800FCE0162E00E94230816C079
:101220006062CE010E94880884E991E10E94800FEB
:101230006F856062CE010E94880886E990E00E9476
:10124000800F6F856062CE010E9488086F856062A2
:10125000CE010E94880884E0888BCE010E948C0811
:10126000CE010E94C50882E0898BCE0166E00E9413
:101270008808DF91CF9108956F927F928F92AF92FD
:10128000CF92EF920F931F93DF93CF93CDB7DEB73B
:101290003C01162F842FF301448325830683E782C4
:1012A000C086A18682869D8593879E8594879F852B
:1012B00095879889968761E00E94E70FF301858101
:1012C0008F3F19F061E00E94E70FF301868161E032
:1012D0000E94E70F112319F0F301178603C080E184
:1012E000F3018787C30160E141E020E00E94CD085F
:1012F000CF91DF911F910F91EF90CF90AF908F9092
:101300007F906F9008958F92AF92CF92EF920F934C
:101310001F93CF93DF93DC01362F542F722F102FA2
:10132000AE2C8C2C13961C921E92129785EC91E099
:1013300011969C938E9300D000D0EDB7FEB73196F6
:10134000CDB7DEB71982118212821382CD0161E01E
:10135000432F2FEF052FE72EC12E0E943C090F903F
:101360000F900F900F90DF91CF911F910F91EF9001
:10137000CF90AF908F90089508951F920F920FB65F
:101380000F9211242F933F934F938F939F93EF933B
:10139000FF938091C00082FD1DC04091C600209146
:1013A0009502309196022F5F3F4F2F7330708091DE
:1013B0009702909198022817390771F0E0919502F1
:1013C000F0919602EB5AFD4F4083309396022093A2
:1013D000950202C08091C600FF91EF919F918F917D
:1013E0004F913F912F910F900FBE0F901F90189526
:1013F000E091E902F091EA02E05CFF4F8191919166
:1014000020813181821B930B8F739070892B11F097
:101410000E94BC0908951F920F920FB60F921124DB
:101420002F933F938F939F93EF93FF932091D90234
:101430003091DA028091DB029091DC0228173907A3
:1014400031F48091C1008F7D8093C10014C0E09180
:10145000DB02F091DC02E756FD4F20818091DB0238
:101460009091DC0201968F7390709093DC028093D0
:10147000DB022093C600FF91EF919F918F913F91E6
:101480002F910F900FBE0F901F901895AF92BF92A3
:10149000DF92EF92FF920F931F93CF93DF93EC01B4
:1014A0007A018B01DD24403081EE580780E0680727
:1014B00080E0780711F0DD24D39491E0A92EB12CBF
:1014C000EC89FD89DD2069F0C50108A002C0880F04
:1014D000991F0A94E2F7808360E079E08DE390E061
:1014E00005C0108260E874E88EE190E0A8019701E1
:1014F0000E94AA12215030404040504056954795D6
:101500003795279580E12030380720F0DD2011F055
:10151000DD24D6CFE889F9893083EA89FB892083E5
:1015200019A2EE89FF89408121E030E0C9010C8CCD
:1015300002C0880F991F0A94E2F7482B4083EE8976
:10154000FF894081C9010D8C02C0880F991F0A9440
:10155000E2F7482B4083EE89FF894081C9010E8C58
:1015600002C0880F991F0A94E2F7482B4083EE8946
:10157000FF8980810F8C02C0220F331F0A94E2F78B
:10158000209528232083DF91CF911F910F91FF9009
:10159000EF90DF90BF90AF900895DC011C96ED9125
:1015A000FC911D97E05CFF4F2191319180819181E9
:1015B000281B390B2F733070C9010895DC011C966C
:1015C000ED91FC911D97E05CFF4F20813181E0544B
:1015D000F040DF01AE5BBF4F8D919C9111972817B2
:1015E000390719F42FEF3FEF07C08D919C91E80F59
:1015F000F91F8081282F30E0C9010895DC011C9675
:10160000ED91FC911D97E05CFF4F20813181E0540A
:10161000F040DF01AE5BBF4F8D919C911197281771
:10162000390719F42FEF3FEF10C08D919C9111975E
:10163000E80FF91F20818D919C91119701968F736E
:10164000907011969C938E9330E0C9010895DC014F
:1016500091968C919197882339F05496ED91FC9155
:101660005597808186FFF9CF91961C920895CF936C
:10167000DF93EC01EE85FF85E05CFF4F2081318137
:10168000E054F0402F5F3F4F2F733070DF01AE5BAF
:10169000BF4F8D919C91119728173907D1F3E05CCA
:1016A000FF4F80819181E054F040E80FF91F608383
:1016B000EE85FF85E05CFF4F31832083EE89FF8953
:1016C000208181E090E00F8C02C0880F991F0A945E
:1016D000E2F7282B208381E089A3EC89FD898081B2
:1016E0008064808381E090E0DF91CF910895109233
:1016F000E0021092DF0288EE93E0A0E0B0E0809379
:10170000E1029093E202A093E302B093E40285ED3C
:1017100091E09093DE028093DD0285E592E0909364
:10172000EA028093E90289E992E09093EC028093C7
:10173000EB0285EC90E09093EE028093ED0284EC56
:1017400090E09093F0028093EF0280EC90E0909311
:10175000F2028093F10281EC90E09093F402809386
:10176000F30282EC90E09093F6028093F50286EC0F
:1017700090E09093F8028093F70284E08093F9025E
:1017800083E08093FA0287E08093FB0285E08093F8
:10179000FC0281E08093FD020895CF93DF930E94C5
:1017A0008A0F0E949F05C8EFD9E00E94E3052097A9
:1017B000E1F30E94F809F9CF0E94740208950E9493
:1017C000CA010895CF92DF92EF92FF920F931F9379
:1017D000CF93DF937C016B018A01C0E0D0E00FC0A2
:1017E000D6016D916D01D701ED91FC910190F081D1
:1017F000E02DC7010995C80FD91F015010400115F0
:10180000110571F7CE01DF91CF911F910F91FF90DC
:10181000EF90DF90CF9008950E9483050895AF92D6
:10182000BF92CF92DF92EF92FF920F931F93CF93CD
:10183000DF935C016B01EE24FF24C0E0D0E010C018
:10184000D501ED91FC9100811181C601BE010E947C
:101850008610682FC501F8010995E80EF91E21963A
:10186000F60184819581C817D90750F3C701DF912C
:10187000CF911F910F91FF90EF90DF90CF90BF908D
:10188000AF900895813041F0813018F08230D1F46A
:1018900009C010926E00089580916F008D7F809333
:1018A0006F000895809170008D7F8093700081E0BB
:1018B0008093B0008091B100887F84608093B100F4
:1018C0001092B30008951F93182F80919A018117E9
:1018D00011F09FEF06C0EEEDF2E094918FEF809350
:1018E0009A01892F0E94420C812F60E00E945310C0
:1018F0001F9108951F920F920FB60F9211242F93EC
:101900003F934F935F936F937F938F939F93AF9387
:10191000BF93EF93FF9380910D0390910E03A091DD
:101920000F03B09110030097A105B10551F1E091AB
:101930001103F09112038081909113038927808312
:1019400080910D0390910E03A0910F03B0911003AD
:10195000181619061A061B06C4F480910D039091FF
:101960000E03A0910F03B09110030197A109B109D3
:1019700080930D0390930E03A0930F03B093100375
:1019800004C080919A010E94630CFF91EF91BF9176
:10199000AF919F918F917F916F915F914F913F9107
:1019A0002F910F900FBE0F901F9018952F923F927E
:1019B0005F926F927F928F929F92AF92BF92CF92DF
:1019C000DF92EF92FF920F931F93DF93CF9300D09C
:1019D00000D0CDB7DEB7A82F1B0129833A834B83F4
:1019E0005C8380919A018A1721F4EEEDF2E0549025
:1019F00082C08F3F09F0DAC1A0939A01EEEDF2E0C8
:101A000054902FEF521609F4D1C181E0581639F1E4
:101A100092E0591609F449C0552009F06CC014BC75
:101A200015BC84B5826084BD85B5816085BD2A2FD3
:101A300030E0F901E350FD4FE491F0E0EE0FFF1FBD
:101A4000E751FD4F85919491909304038093030394
:101A50002F5E3C4FF9018491809305034EC0109294
:101A600080001092810080918100886080938100C5
:101A7000809181008160809381002A2F30E0F901FC
:101A8000E350FD4FE491F0E0EE0FFF1FE751FD4FF3
:101A90008591949190930B0380930A032F5E3C4FA2
:101AA000F901849180930C0328C01092B000109229
:101AB000B1008091B00082608093B0008091B1004D
:101AC00081608093B1002A2F30E0F901E350FD4F8F
:101AD000E491F0E0EE0FFF1FE751FD4F85919491E7
:101AE00090931203809311032F5E3C4FF901849170
:101AF0008093130302C057FC59C18A2F61E00E94F2
:101B0000E70F552021F0F2E05F1609F0BEC0310169
:101B10008824992460E072E18AE790E0A4019301AF
:101B20000E94CC1259016A01860175010894E108EE
:101B3000F108010911092FEFE216F1040105110561
:101B400009F008F499C060E472E48FE090E0A40129
:101B500093010E94CC1279018A010894E108F108EE
:101B60000109110982E05816C1F49FEFE916F1044A
:101B70000105110509F008F484C060E970ED83E007
:101B800090E0A40193010E94CC1279018A0108948B
:101B9000E108F1080109110983E0AFEFEA16F10449
:101BA0000105110509F008F468C068E478EE81E0E9
:101BB00090E0A40193010E94CC1279018A0108945B
:101BC000E108F10801091109552011F483E01DC055
:101BD000B2E05B1611F084E018C0EFEFEE16F104EE
:101BE0000105110509F008F4DFC064E274EF80E03C
:101BF00090E0A40193010E94CC1279018A0108941B
:101C0000E108F1080109110985E0FFEFEF16F10481
:101C10000105110591F188F162E17AE780E090E039
:101C2000A40193010E94CC1279018A010894E10871
:101C3000F10801091109552011F086E001C084E086
:101C40002FEFE216F10401051105B9F0B0F0C6015D
:101C5000B50120E034E040E050E00E94CC12790170
:101C60008A010894E108F10801091109552011F0D1
:101C700087E008C085E003C081E0552019F485BDE8
:101C80003AC082E08093B10036C05101CC24DD24FB
:101C900060E072E18AE790E0A60195010E94CC1213
:101CA00079018A010894E108F1080109110980E02D
:101CB000E81680E0F80681E0080780E0180710F4D5
:101CC00091E010C068E478EE81E090E0A601950113
:101CD0000E94CC1279018A010894E108F1080109F7
:101CE000110993E0A1E05A1631F480918100887FB8
:101CF000982B9093810089819A81AB81BC81009758
:101D0000A105B10529F48FEF9FEFAFEFBFEF13C02F
:101D1000220C331CB10180E090E029813A814B8193
:101D20005C810E94641228EE33E040E050E00E94A3
:101D3000AA12C901DA01E1E05E16A1F0F2E05F1635
:101D400019F1552099F5E7BC8093FF0290930003A9
:101D5000A0930103B093020380916E008260809390
:101D60006E0024C0F0928900E09288008093060300
:101D700090930703A0930803B093090380916F0029
:101D8000826080936F0012C0E092B30080930D03D5
:101D900090930E03A0930F03B093100380917000F3
:101DA00082608093700002C084E06CCF0F900F902F
:101DB0000F900F90CF91DF911F910F91FF90EF90B7
:101DC000DF90CF90BF90AF909F908F907F906F905B
:101DD0005F903F902F9008951F920F920FB60F9231
:101DE00011242F933F938F939F93AF93BF93809131
:101DF000180390911903A0911A03B0911B0330911D
:101E00001C030196A11DB11D232F2D5F2D3720F03E
:101E10002D570196A11DB11D20931C03809318031B
:101E200090931903A0931A03B0931B03809114039A
:101E300090911503A0911603B09117030196A11D6F
:101E4000B11D8093140390931503A0931603B093D0
:101E50001703BF91AF919F918F913F912F910F9059
:101E60000FBE0F901F9018959FB7F8942091140300
:101E700030911503409116035091170386B5A89B26
:101E800006C08F3F21F02F5F3F4F4F4F5F4F9FBFE7
:101E9000542F432F322F2227280F311D411D511D52
:101EA00082E0220F331F441F551F8A95D1F7B901D5
:101EB000CA010895EF92FF920F931F93CF93DF9380
:101EC0007B018C010E94340FEB010EC00E94340F85
:101ED0006C1B7D0B685E7340C8F30894E108F10841
:101EE00001091109C851DC4FE114F1040105110584
:101EF00069F7DF91CF911F910F91FF90EF900895B7
:101F0000019739F0880F991F880F991F0297019741
:101F1000F1F70895789484B5826084BD84B58160BA
:101F200084BD85B5826085BD85B5816085BDEEE6E1
:101F3000F0E0808181608083E1E8F0E010828081C0
:101F400082608083808181608083E0E8F0E080812E
:101F500081608083E1EBF0E0808184608083E0EB4E
:101F6000F0E0808181608083EAE7F0E08081846036
:101F70008083808182608083808181608083808192
:101F8000806880831092C1000895982F8E3008F0E9
:101F90009E50977080919B018295880F880F807C5E
:101FA000892B80937C0080917A00806480937A00F2
:101FB00080917A0086FDFCCF2091780040917900D5
:101FC000942F80E030E0282B392BC9010895CF935E
:101FD000DF93482F50E0CA018F5E9C4FFC01349183
:101FE00043505D4FFA018491882369F190E0880F96
:101FF000991FFC01E152FD4FA591B491FC01E751FD
:10200000FD4FC591D491662351F42FB7F8948C916C
:10201000932F909589238C93888189230BC06230FC
:1020200061F42FB7F8948C91932F909589238C931A
:102030008881832B88832FBF06C09FB7F8948C912B
:10204000832B8C939FBFDF91CF910895833071F0E4
:10205000843028F48130A1F0823021F514C086301C
:10206000B1F08730D1F08430E9F404C08091800071
:102070008F7703C0809180008F7D809380000895CA
:1020800084B58F7702C084B58F7D84BD089580911B
:10209000B0008F778093B00008958091B0008F7D5D
:1020A0008093B0000895FF920F931F93F62E482F50
:1020B00050E0CA018B5D9C4FFC012491CA018F5EE8
:1020C0009C4FFC01149143505D4FFA010491002391
:1020D000C9F0222319F0822F0E942610E02FF0E091
:1020E000EE0FFF1FE751FD4FA591B4919FB7F894F4
:1020F000FF2021F48C911095812302C08C91812BBB
:102100008C939FBF1F910F91FF900895FC018481D4
:1021100095816817790748F40190F081E02D309798
:1021200021F0E60FF71F8081089580E008950F9356
:102130001F93CF93DF93EC018B016F5F7F4F8881FB
:1021400099810E94CC02009711F480E005C0998328
:1021500088831B830A8381E0DF91CF911F910F91C8
:102160000895CF93DF93EC0188819981892B29F021
:102170008A819B818617970760F4CE010E94971091
:10218000882341F08C819D81892B19F4E881F981A4
:10219000108281E0DF91CF910895CF93DF93EC011E
:1021A00088819981009711F00E9474021982188227
:1021B0001D821C821B821A82DF91CF910895EF92BB
:1021C000FF920F931F93CF93DF93EC017B018A0162
:1021D000BA010E94B110882321F4CE010E94CD10D3
:1021E00007C01D830C8388819981B7010E94AA03CF
:1021F000CE01DF91CF911F910F91FF90EF90089545
:10220000CF93DF93EC01198218821B821A821D8200
:102210001C821E826115710551F0DB010D900020BA
:10222000E9F71197A61BB70BAD010E94DF10DF91F4
:10223000CF910895CF93DF93EC01FB0186179707A9
:1022400061F0608171816115710529F044815581CA
:102250000E94DF1002C00E94CD10CE01DF91CF910D
:102260000895FC0111821082138212821582148259
:1022700016820E941A110895FC01808191810E94AA
:102280007402089504D06894B111B5C0089598D02F
:1022900088F09F5790F0B92F9927B751A0F0D1F04F
:1022A000660F771F881F991F1AF0BA95C9F712C0D9
:1022B000B13081F09FD0B1E008959CC0672F782F96
:1022C0008827B85F39F0B93FCCF386957795679545
:1022D000B395D9F73EF490958095709561957F4FB1
:1022E0008F4F9F4F0895E89409C097FB3EF4909557
:1022F0008095709561957F4F8F4F9F4F9923A9F0DF
:10230000F92F96E9BB279395F6958795779567956D
:10231000B795F111F8CFFAF4BB0F11F460FF1BC0B1
:102320006F5F7F4F8F4F9F4F16C0882311F096E944
:1023300011C0772321F09EE8872F762F05C06623F2
:1023400071F096E8862F70E060E02AF09A95660FAB
:10235000771F881FDAF7880F9695879597F9089564
:1023600097F99F6780E870E060E008959FEF80EC48
:10237000089500240A9416161706180609060895EB
:1023800000240A9412161306140605060895092E51
:102390000394000C11F4882352F0BB0F40F4BF2BC0
:1023A00011F460FF04C06F5F7F4F8F4F9F4F089500
:1023B00057FD9058440F551F59F05F3F71F04795F6
:1023C000880F97FB991F61F09F3F79F087950895DB
:1023D000121613061406551FF2CF4695F1DF08C0FA
:1023E000161617061806991FF1CF86957105610517
:1023F00008940895E894BB2766277727CB0197F9BF
:1024000008950BD0C4CFB5DF28F0BADF18F09523BC
:1024100009F0A6CFABCF1124EECFCADFA0F3959F72
:10242000D1F3950F50E0551F629FF001729FBB27BB
:10243000F00DB11D639FAA27F00DB11DAA1F649F67
:102440006627B00DA11D661F829F2227B00DA11D1A
:10245000621F739FB00DA11D621F839FA00D611DA0
:10246000221F749F3327A00D611D231F849F600DC1
:10247000211D822F762F6A2F11249F5750408AF0FA
:10248000E1F088234AF0EE0FFF1FBB1F661F771F86
:10249000881F91505040A9F79E3F510570F060CFC2
:1024A000AACF5F3FECF3983EDCF38695779567956E
:1024B000B795F795E7959F5FC1F7FE2B880F911DA4
:1024C0009695879597F90895629FD001739FF001C3
:1024D000829FE00DF11D649FE00DF11D929FF00DB4
:1024E000839FF00D749FF00D659FF00D9927729FEB
:1024F000B00DE11DF91F639FB00DE11DF91FBD0176
:10250000CF0111240895AA1BBB1B51E107C0AA1FCC
:10251000BB1FA617B70710F0A61BB70B881F991F84
:102520005A95A9F780959095BC01CD01089597FB28
:10253000092E07260AD077FD04D0E5DF06D000205B
:102540001AF4709561957F4F0895F6F790958195EF
:102550009F4F0895A1E21A2EAA1BBB1BFD010DC0BF
:10256000AA1FBB1FEE1FFF1FA217B307E407F50743
:1025700020F0A21BB30BE40BF50B661F771F881F1F
:10258000991F1A9469F760957095809590959B01B5
:10259000AC01BD01CF01089597FB092E05260ED091
:1025A00057FD04D0D7DF0AD0001C38F45095409571
:1025B000309521953F4F4F4F5F4F0895F6F7909517
:1025C0008095709561957F4F8F4F9F4F0895EE0FC7
:1025D000FF1F0590F491E02D09942F923F924F92A6
:1025E0005F926F927F928F929F92AF92BF92CF92A3
:1025F000DF92EF92FF920F931F93CF93DF93CDB7AC
:10260000DEB7CA1BDB0B0FB6F894DEBF0FBECDBF23
:1026100009942A88398848885F846E847D848C84F4
:102620009B84AA84B984C884DF80EE80FD800C81FD
:102630001B81AA81B981CE0FD11D0FB6F894DEBFE0
:102640000FBECDBFED01089513E0CEE3D3E004C08B
:10265000FE010E94E9122296C034D107C9F7F8940E
:02266000FFCFAA
:10266200416464616D730041726B616E6F696400F5
:1026720053746172576172730044756B6533440021
:1026820053696D70736F6E7300546F63636174612D
:1026920000506C6179696E6700506C61790050720C
:1026A200657620536F6E67004E65787420536F6EA7
:1026B20067006B6579207072657373203A20002F72
:1026C200000A00202020202020202020202020205E
:1026D200202020003C003E003C4E4F204D454E55F0
:1026E2003E00200021030000340A273D171906008E
:1026F2003200C800900158022003FF012020202050
:102702002020202020202020202020200000000047
:10271200001C067706000000008C065D07BB061E43
:1027220007000000008208E20B0000400014005481
:102732000000000000370BE20BCD0AFE0ADE0A277A
:022742000B008A
:00000001FF
