:100000000C94A0010C94C8010C94C8010C94C80174
:100010000C94C8010C94C8010C94C8010C94100BEA
:100020000C94C8010C94C8010C94C8010C94C8012C
:100030000C94C8010C94C8010C94C8010C94C8011C
:100040000C94820D0C94C8010C9470080C94BE089A
:100050000C94C8010C94C8010C94C8010C94C801FC
:100060000C94C8010C94C8010B024B029302BA0213
:1000700000004B029302E402100300004B029302C3
:10008000E402100300004B029302E402100300009C
:100090000B024B029302BA0200000B02BA02700379
:1000A000BA020B02EE011003BA029302100393028C
:1000B0000B02B801BA020B02BA027003BA020B02B9
:1000C000EE011003BA0293020B024B029302BA0232
:1000D00008080808010808080801080808080408B2
:1000E00008080804080808080108040804080402AD
:1000F00008040804080402080408040804020804A8
:100100000804080220060000200649070000E00657
:1001100020067505E00620060810100220080808D1
:100120000802BA02BA02BA02A4037505DD049704F4
:10013000170449077505DD04970417044907750579
:10014000DD049704DD0417040000BA02BA02BA0203
:10015000A4037505DD049704170449077505DD043C
:100160009704170449077505DD049704DD04170497
:100170000808080102080808020408080802040820
:100180000808020408080801020808080204080810
:10019000080204080808027201B8010000EE01001C
:1001A000007201EE0100002A02000072012A020022
:1001B000004B020000720100002A02EE01B8017239
:1001C000014A015D0172018801EE01B801880172E6
:1001D00001B80100007201B8010000EE01000072D8
:1001E00001EE0100002A02000072012A0200004B09
:1001F000020000720100002A02EE01B80172014AF9
:10020000015D0172018801EE01B80188017201B837
:1002100001101010100810101010081010101010FD
:1002200010100810101010101010101010101010D6
:1002300010101010081010101008101010101010CE
:1002400010081010101010101010101010101704BB
:100250002705C805E0062006270517047003E402F9
:10026000E402E402100300000000E402E402E402FD
:100270001003A4031704170417040B020404040852
:100280000404040808080802080808080808020806
:10029000080804A4033F03A4033F03E402BA026E68
:1002A000024B026E02A4033F03A403BA02E4024B12
:1002B000026E024B02BA023F03DC03970475053F4E
:1002C00003BA0210031010022020201002021010A6
:1002D00002080808020808080808040202010200CF
:1002E000000000240027002A00000000002500284C
:1002F000002B000000000023002600290004040455
:1003000004040404040202020202020303030303BE
:10031000030102040810204080010204081020019B
:10032000020408102000000007000201000003047E
:10033000060000000000000000000F052A0A080562
:1003400011241FBECFEFD8E0DEBFCDBF11E0A0E08B
:10035000B1E0E0ECF3E202C005900D92AC3DB107D4
:10036000D9F713E0ACEDB1E001C01D92A930B1079F
:10037000E1F713E0CEE3D3E004C02297FE010E9430
:100380009811CA33D107C9F70E94800A0C94D3117F
:100390000C940000CF93DF93BC018230910510F4E0
:1003A00062E070E0A0910703B0910803ED01E0E086
:1003B000F0E040E050E021C08881998186179707DE
:1003C00069F48A819B81309719F09383828304C0FA
:1003D0009093080380930703FE0134C068177907E0
:1003E00038F44115510519F08417950708F4AC014C
:1003F000FE018A819B819C01E9012097E9F6411564
:100400005105A9F1CA01861B970B049708F4BA019C
:10041000E0E0F0E02AC08D919C9111978417950738
:10042000F9F46417750781F412968D919C911397D6
:10043000309719F09383828304C0909308038093CC
:100440000703FD0132964CC0CA01861B970BFD01C4
:10045000E80FF91F6193719302978D939C9340C0AD
:10046000FD01828193819C01D9011097A1F68091B1
:10047000050390910603892B41F480913C019091F2
:100480003D01909306038093050340913E015091F6
:100490003F014115510541F44DB75EB780913A01D6
:1004A00090913B01481B590B2091050330910603A5
:1004B000CA01821B930B8617970780F0AB014E5F32
:1004C0005F4F8417950750F0420F531F5093060358
:1004D00040930503F9016193719302C0E0E0F0E0FD
:1004E000CF01DF91CF910895CF93DF93009709F467
:1004F00050C0EC0122971B821A82A0910703B09191
:100500000803109709F140E050E0AC17BD0708F16F
:10051000BB83AA83FE0121913191E20FF31FAE1735
:10052000BF0779F48D919C911197280F391F2E5F89
:100530003F4F3983288312968D919C9113979B830B
:100540008A834115510571F4D0930803C0930703C2
:1005500020C012968D919C911397AD01009711F0D8
:10056000DC01D3CFFA01D383C28321913191E20F11
:10057000F31FCE17DF0769F488819981280F391F8F
:100580002E5F3F4FFA01318320838A819B819383C1
:100590008283DF91CF910895A0E0B0E0E2EDF2E038
:1005A0000C94A411EC01A880B980CA80DB80A1144E
:1005B000B104C104D10441F484E2A82E89EDB82E1F
:1005C0008BE5C82E87E0D82EC601B5012DE133EFAB
:1005D00041E050E00E947B1127EA31E440E050E026
:1005E0000E9413117B018C01C601B5012DE133EF8F
:1005F00041E050E00E947B11CA01B9012CEE34EFBA
:100600004FEF5FEF0E9413116E0D7F1D801F911F32
:1006100097FF04C0615070408040904868837983A0
:100620008A839B839B01AC015F77B901CA01CDB777
:10063000DEB7EAE00C94C0110E94CC02089580E479
:1006400091E00E94CC0208956093400170934101B3
:1006500080934201909343010895A0E0B0E0E3E36A
:10066000F3E00C949E116C01009729F4CB010E94D9
:10067000CA016C01C1C08EEF882E8FEF982E8C0CB2
:100680009D1C8601060F171F0815190508F4B2C036
:10069000F401A081B181A617B707B8F0A530B10564
:1006A00008F4AAC0CD0104978617970708F4A4C0E0
:1006B0001297A61BB70BF801A193B193D4016D93C8
:1006C0007C93CF010E94740297C07B01EA1AFB0A57
:1006D000EEEFFFEFEE0EFF1E36016A0E7B1EC0919D
:1006E0000703D091080344245524AA24BB244AC0FC
:1006F000C615D705E1F5488159814E155F05B8F15A
:10070000CA0104978E159F05B0F41296A40FB51F69
:10071000F401B183A0832A813B814114510431F05B
:10072000D20113963C932E93129766C03093080320
:100730002093070361C08A819B81F80193838283A0
:10074000425050404E195F09518340834114510477
:1007500031F0D20113961C930E93129704C010939C
:10076000080300930703F4017183608345C0888107
:100770009981A816B90608F45C012E018A819B8133
:100780009C01E901209709F0B3CF80910503909176
:10079000060386159705E9F4A616B706D0F420914E
:1007A0003E0130913F012115310541F42DB73EB78F
:1007B00080913A0190913B01281B390B02171307D6
:1007C000C8F41093060300930503D4016D937C9342
:1007D00013C0CB010E94CA01EC01009759F0F4014B
:1007E00040815181B6010E940204C6010E94740238
:1007F0006E0102C0CC24DD24C601CDB7DEB7E0E136
:100800000C94BA11FB01DC0102C001900D92415021
:100810005040D8F70895FB01DC0101900D920020B3
:10082000E1F70895AC01E0EAF1E020E030E08081FA
:1008300091814817590740F02F5F3F4F329625307E
:100840003105A9F72FEF3FEFC9010895CF92EF923D
:10085000FF920F931F93CF93DF938130910509F09F
:10086000C0C06F5F7F4F09F0CBC08CED91E068E0B6
:1008700049E024E005E056E0E52E37E0C32E0E9473
:1008800036088CE0F82E03EF11E0D801EF2D1D9211
:10089000EA95E9F7C80160E071E00E94AF0F80912E
:1008A00096018093FA0188E690E09093FC01809392
:1008B000FB0180ED90E09093FE018093FD01F80133
:1008C0003C96DF018F2D1D928A95E9F7CF0167E0F5
:1008D00071E00E94AF0F809197018093060284E03F
:1008E00091E0909308028093070288E191E0909351
:1008F0000A0280930902F8017896DF018F2D1D927C
:100900008A95E9F7CF0160E171E00E94AF0F809115
:1009100098018093120282E291E0909314028093F6
:10092000130280E791E09093160280931502F8017C
:10093000B496DF018F2D1D928A95E9F7CF0169E109
:1009400071E00E94AF0F8091990180931E0287E9A8
:1009500091E09093200280931F0281E192E09093B6
:10096000220280932102F801F096DF018F2D1D9263
:100970008A95E9F7CF0160E271E00E94AF0F8091A4
:100980009A0180932A028EE492E090932C02809345
:100990002B028CE792E090932E0280932D02045C50
:1009A0001F4FD8011D92FA94E9F7C80169E271E07E
:1009B0000E94AF0F80919B018093360283E992E001
:1009C000909338028093370285EC92E090933A023C
:1009D000809339028BE392E069E070E00E94C205E7
:1009E0000FC0892B69F46F5F7F4F51F4CFE2D2E0E3
:1009F000CE010E94EB0F2C97E1E0C73EDE07C1F766
:100A0000DF91CF911F910F91FF90EF90CF900895BC
:100A100080E090E06FEF7FEF0E942604089581E070
:100A200090E06FEF7FEF0E942604089580E00E941F
:100A30005B0E0E941204209194013091950182175F
:100A4000930799F062E370E080E090E00E94F00D7F
:100A500080E00E945B0E0E9412049C018091940130
:100A6000909195012817390711F42FEF3FEFC90135
:100A700008950F931F93CF93DF930E941605EC0107
:100A80008FEFCF3FD80709F454C08E0164E0000F08
:100A9000111F6A95E1F70C5B1E4FD8010D900020E5
:100AA000E9F71197A01BB10BE091C502F091C602C6
:100AB0000280F381E02D85EC92E0B801AD0109954B
:100AC0008CED91E060E041E00E9449078CED91E0FF
:100AD0006AEA71E00E94D50A8CED91E060E041E0A5
:100AE0000E9449078CED91E0B8010E94D50A8091DF
:100AF000F1019091F201892B41F4249731F481E0C6
:100B000090E09093F2018093F1018091F101909136
:100B1000F201019771F440919C0150919D018BE38A
:100B200092E063EF71E00E9428061092F2011092A9
:100B3000F101DF91CF911F910F9108950F931F93B2
:100B400085EC92E040E855E260E070E00E94F90830
:100B50000CED11E0C80160E142E020E00E94800756
:100B6000C80160E040E00E944907C80161E371E00C
:100B70000E94D50AC80160E041E00E9449071F9128
:100B80000F910895FC017183608308958F929F9265
:100B9000AF92BF92CF92DF92EF92FF920F931F938B
:100BA000CF93DF934C016B01DB0117968C91A82E3C
:100BB000BB24C0E0D0E03BC0CE01880F991FD60116
:100BC0001896ED91FC911997E80FF91F2591349132
:100BD0001A96ED91FC911B97EC0FFD1FE49188EEA6
:100BE00093E06E2F70E00E9446117B010027F7FC16
:100BF0000095102FF4018081B901A80197010E948E
:100C00006C0BC801B7010E94241026E636E646EABE
:100C10005FE30E94B0100E94F10F882777FD809556
:100C2000982F0E94F00D88E00E94F90A2196CA15BB
:100C3000DB050CF4C1CFDF91CF911F910F91FF9095
:100C4000EF90DF90CF90BF90AF909F908F900895DE
:100C5000AF92BF92CF92DF92EF92FF920F931F93CA
:100C6000DF93CF93CDB7DEB72C970FB6F894DEBFE6
:100C70000FBECDBF5C016B017A0180E00E945B0E6C
:100C80000E943E0F0027F7FC0095102FC801B70106
:100C90000E941C0F9B01220F331F260F371F220FAC
:100CA000331F220F331FC20ED31E8E010F5F1F4F43
:100CB000C801B6010E94E00FF60187818887808510
:100CC00091859A878987828593859C878B87C501C3
:100CD000B8010E94C605C8010E94EB0F2C960FB602
:100CE000F894DEBF0FBECDBFCF91DF911F910F9162
:100CF000FF90EF90DF90CF90BF90AF9008950F934B
:100D00001F938C01FC01868160E00E94E90E81E066
:100D100090E00E94160EF801868161E00E94E90EC3
:100D200081E090E00E94160EF801868160E00E944A
:100D3000E90E84E690E00E94160E1F910F9108952F
:100D4000CF92DF92EF92FF920F931F93CF93DF9397
:100D5000D82EC92E282F392FC9018C01C0E0D0E030
:100D6000E62EFF24F801878161E00E947D0EB70125
:100D70000C2E02C0759567950A94E2F76170F80130
:100D800087810E94E90E21960F5F1F4FC830D10561
:100D900049F78D2D9C2D0E947F06DF91CF911F91E9
:100DA0000F91FF90EF90DF90CF900895CF92DF9258
:100DB000EF92FF920F931F93CF93DF93D82EC92EFC
:100DC000282F392FC9018C01C0E0D0E0E62EFF2486
:100DD000F801878161E00E947D0EB7010C2E02C0F0
:100DE000759567950A94E2F76170F80187810E9412
:100DF000E90E21960F5F1F4FC430D10549F78D2DA5
:100E00009C2D0E947F06DF91CF911F910F91FF9043
:100E1000EF90DF90CF9008951F93CF93DF93EC0175
:100E2000162F8C81642F0E94E90E8D818F3F19F05F
:100E300060E00E94E90E8F8584FF05C0CE01612F1E
:100E40000E94A0060EC0612F70E084E07595679542
:100E50008A95E1F7CE010E94D606CE01612F0E944D
:100E6000D606DF91CF911F91089541E00E940C07B3
:100E700081E090E0089540E00E940C070895FC0195
:100E80006089862F8460808B6C60CF010E943B0755
:100E90000895DF93CF93CDB7DEB728970FB6F894B8
:100EA000DEBF0FBECDBF9C01FE013196A3ECB1E0C9
:100EB00088E00D9001928150E1F7F901838948178C
:100EC00010F0482F4150E42FF0E0EE0FFF1FEC0F21
:100ED000FD1F8181680F6068C9010E943B07289649
:100EE0000FB6F894DEBF0FBECDBFCF91DF9108954E
:100EF00061E00E943B0780ED97E00E94160E089586
:100F0000CF93DF93EC01423018F08F8588608F8794
:100F10004B8B1C8A222329F0413019F48F85846081
:100F20008F8780E593EC0E94160E8C8160E00E9412
:100F3000E90E8E8160E00E94E90E8D818F3F19F0ED
:100F400060E00E94E90E6F8564FD1DC0CE0163E084
:100F50000E94D60684E991E10E94160ECE0163E05C
:100F60000E94D60684E991E10E94160ECE0163E04C
:100F70000E94D60686E990E00E94160ECE0162E03D
:100F80000E94D60616C06062CE010E943B0784E92B
:100F900091E10E94160E6F856062CE010E943B07B0
:100FA00086E990E00E94160E6F856062CE010E9475
:100FB0003B076F856062CE010E943B0784E0888B0F
:100FC000CE010E943F07CE010E94780782E0898B04
:100FD000CE0166E00E943B07DF91CF9108956F92AA
:100FE0007F928F92AF92CF92EF920F931F93DF93E6
:100FF000CF93CDB7DEB73C01162F842FF301448386
:1010000025830683E782C086A18682869D85938795
:101010009E8594879F8595879889968761E00E9431
:101020007D0EF30185818F3F19F061E00E947D0EF6
:10103000F301868161E00E947D0E112319F0F30116
:10104000178603C080E1F3018787C30160E141E0B7
:1010500020E00E948007CF91DF911F910F91EF90C8
:10106000CF90AF908F907F906F9008958F92AF92B6
:10107000CF92EF920F931F93CF93DF93DC01362F24
:10108000542F722F102FAE2C8C2C13961C921E9264
:1010900012978FEB91E011969C938E9300D000D025
:1010A000EDB7FEB73196CDB7DEB719821182128245
:1010B0001382CD0161E0432F2FEF052FE72EC12EC4
:1010C0000E94EF070F900F900F900F90DF91CF913C
:1010D0001F910F91EF90CF90AF908F90089508954A
:1010E0001F920F920FB60F9211242F933F934F939D
:1010F0008F939F93EF93FF938091C00082FD1DC05B
:101100004091C60020917D0230917E022F5F3F4FBB
:101110002F73307080917F029091800228173907D9
:1011200071F0E0917D02F0917E02E35CFD4F40831F
:1011300030937E0220937D0202C08091C600FF9111
:10114000EF919F918F914F913F912F910F900FBEF3
:101150000F901F901895E091D102F091D202E05CBF
:10116000FF4F8191919120813181821B930B8F736D
:101170009070892B11F00E946F0808951F920F92B2
:101180000FB60F9211242F933F938F939F93EF935A
:10119000FF932091C1023091C2028091C3029091CD
:1011A000C4022817390731F48091C1008F7D8093E4
:1011B000C10014C0E091C302F091C402EF57FD4F8B
:1011C00020818091C3029091C40201968F73907028
:1011D0009093C4028093C3022093C600FF91EF91C5
:1011E0009F918F913F912F910F900FBE0F901F9065
:1011F0001895AF92BF92DF92EF92FF920F931F93D9
:10120000CF93DF93EC017A018B01DD24403081EE36
:10121000580780E0680780E0780711F0DD24D39458
:1012200091E0A92EB12CEC89FD89DD2069F0C50182
:1012300008A002C0880F991F0A94E2F7808360E03B
:1012400079E08DE390E005C0108260E874E88EE1FB
:1012500090E0A80197010E94591121503040404070
:101260005040569547953795279580E120303807AF
:1012700020F0DD2011F0DD24D6CFE889F989308314
:10128000EA89FB89208319A2EE89FF89408121E048
:1012900030E0C9010C8C02C0880F991F0A94E2F754
:1012A000482B4083EE89FF894081C9010D8C02C023
:1012B000880F991F0A94E2F7482B4083EE89FF8933
:1012C0004081C9010E8C02C0880F991F0A94E2F771
:1012D000482B4083EE89FF8980810F8C02C0220F4A
:1012E000331F0A94E2F7209528232083DF91CF91C2
:1012F0001F910F91FF90EF90DF90BF90AF900895F6
:10130000DC011C96ED91FC911D97E05CFF4F219153
:10131000319180819181281B390B2F733070C90165
:101320000895DC011C96ED91FC911D97E05CFF4F48
:1013300020813181E054F040DF01AE5BBF4F8D91E1
:101340009C9111972817390719F42FEF3FEF07C029
:101350008D919C91E80FF91F8081282F30E0C90101
:101360000895DC011C96ED91FC911D97E05CFF4F08
:1013700020813181E054F040DF01AE5BBF4F8D91A1
:101380009C9111972817390719F42FEF3FEF10C0E0
:101390008D919C911197E80FF91F20818D919C915F
:1013A000119701968F73907011969C938E9330E0F5
:1013B000C9010895DC0191968C919197882339F0A9
:1013C0005496ED91FC915597808186FFF9CF9196C7
:1013D0001C920895CF93DF93EC01EE85FF85E05CCE
:1013E000FF4F20813181E054F0402F5F3F4F2F733A
:1013F0003070DF01AE5BBF4F8D919C911197281724
:101400003907D1F3E05CFF4F80819181E054F040D7
:10141000E80FF91F6083EE85FF85E05CFF4F3183A5
:101420002083EE89FF89208181E090E00F8C02C04B
:10143000880F991F0A94E2F7282B208381E089A363
:10144000EC89FD8980818064808381E090E0DF9178
:10145000CF9108951092C8021092C70288EE93E0CF
:10146000A0E0B0E08093C9029093CA02A093CB029F
:10147000B093CC028FEC91E09093C6028093C502AA
:101480008DE392E09093D2028093D10281E892E0C2
:101490009093D4028093D30285EC90E09093D6028F
:1014A0008093D50284EC90E09093D8028093D70289
:1014B00080EC90E09093DA028093D90281EC90E086
:1014C0009093DC028093DB0282EC90E09093DE024A
:1014D0008093DD0286EC90E09093E0028093DF023F
:1014E00084E08093E10283E08093E20287E08093CE
:1014F000E30285E08093E40281E08093E5020895B1
:10150000CF93DF930E94200E0E949E05CBEAD8E085
:101510000E9439052097E1F30E94AB08F9CFCF92E2
:10152000DF92EF92FF920F931F93CF93DF937C0193
:101530006B018A01C0E0D0E00FC0D6016D916D0152
:10154000D701ED91FC910190F081E02DC701099543
:10155000C80FD91F015010400115110571F7CE01B8
:10156000DF91CF911F910F91FF90EF90DF90CF907F
:101570000895CF93DF93EC016115710519F420E014
:1015800030E00FC0DB010D900020E9F71197A61B9A
:10159000B70BE881F9810280F381E02DAD01099557
:1015A0009C01C901DF91CF9108950E94B90A089565
:1015B000813041F0813018F08230D1F409C01092AE
:1015C0006E00089580916F008D7F80936F00089565
:1015D000809170008D7F8093700081E08093B000D7
:1015E0008091B100887F84608093B1001092B30035
:1015F00008951F93182F80919E01811711F09FEF7E
:1016000006C0EEEDF2E094918FEF80939E01892F5A
:101610000E94D80A812F60E00E94E90E1F91089570
:101620001F920F920FB60F9211242F933F934F9357
:101630005F936F937F938F939F93AF93BF93EF933A
:10164000FF938091F5029091F602A091F702B0917C
:10165000F8020097A105B10551F1E091F902F0916E
:10166000FA0280819091FB02892780838091F502A4
:101670009091F602A091F702B091F802181619069F
:101680001A061B06C4F48091F5029091F602A0910F
:10169000F702B091F8020197A109B1098093F50210
:1016A0009093F602A093F702B093F80204C08091E1
:1016B0009E010E94F90AFF91EF91BF91AF919F9116
:1016C0008F917F916F915F914F913F912F910F90EB
:1016D0000FBE0F901F9018952F923F925F926F92BE
:1016E0007F928F929F92AF92BF92CF92DF92EF92B2
:1016F000FF920F931F93DF93CF9300D000D0CDB70D
:10170000DEB7A82F1B0129833A834B835C8380912A
:101710009E018A1721F4EEEDF2E0549082C08F3FD3
:1017200009F0DAC1A0939E01EEEDF2E054902FEFA4
:10173000521609F4D1C181E0581639F192E05916D8
:1017400009F449C0552009F06CC014BC15BC84B51F
:10175000826084BD85B5816085BD2A2F30E0F901A6
:10176000E350FD4FE491F0E0EE0FFF1FE751FD4F16
:10177000859194919093EC028093EB022F5E3C4F05
:10178000F90184918093ED024EC010928000109276
:101790008100809181008860809381008091810028
:1017A0008160809381002A2F30E0F901E350FD4FE2
:1017B000E491F0E0EE0FFF1FE751FD4F859194910A
:1017C0009093F3028093F2022F5E3C4FF9018491D3
:1017D0008093F40228C01092B0001092B100809162
:1017E000B00082608093B0008091B10081608093EE
:1017F000B1002A2F30E0F901E350FD4FE491F0E011
:10180000EE0FFF1FE751FD4F859194919093FA02DF
:101810008093F9022F5E3C4FF90184918093FB0283
:1018200002C057FC59C18A2F61E00E947D0E5520ED
:1018300021F0F2E05F1609F0BEC03101882499243E
:1018400060E072E18AE790E0A40193010E947B11BD
:1018500059016A01860175010894E108F10801093E
:1018600011092FEFE216F1040105110509F008F442
:1018700099C060E472E48FE090E0A40193010E94BB
:101880007B1179018A010894E108F1080109110925
:1018900082E05816C1F49FEFE916F1040105110525
:1018A00009F008F484C060E970ED83E090E0A401E1
:1018B00093010E947B1179018A010894E108F108E3
:1018C0000109110983E0AFEFEA16F10401051105E2
:1018D00009F008F468C068E478EE81E090E0A401C3
:1018E00093010E947B1179018A010894E108F108B3
:1018F00001091109552011F483E01DC0B2E05B1607
:1019000011F084E018C0EFEFEE16F10401051105A7
:1019100009F008F4DFC064E274EF80E090E0A40115
:1019200093010E947B1179018A010894E108F10872
:101930000109110985E0FFEFEF16F104010511051A
:1019400091F188F162E17AE780E090E0A4019301EF
:101950000E947B1179018A010894E108F1080109CC
:101960001109552011F086E001C084E02FEFE21646
:10197000F10401051105B9F0B0F0C601B50120E090
:1019800034E040E050E00E947B1179018A01089424
:10199000E108F10801091109552011F087E008C09C
:1019A00085E003C081E0552019F485BD3AC082E08E
:1019B0008093B10036C05101CC24DD2460E072E197
:1019C0008AE790E0A60195010E947B1179018A01C6
:1019D0000894E108F1080109110980E0E81680E0A7
:1019E000F80681E0080780E0180710F491E010C0C5
:1019F00068E478EE81E090E0A60195010E947B11F9
:101A000079018A010894E108F1080109110993E0BC
:101A1000A1E05A1631F480918100887F982B909331
:101A2000810089819A81AB81BC810097A105B105B4
:101A300029F48FEF9FEFAFEFBFEF13C0220C331CE1
:101A4000B10180E090E029813A814B815C810E9464
:101A5000131128EE33E040E050E00E945911C90113
:101A6000DA01E1E05E16A1F0F2E05F1619F155200F
:101A700099F5E7BC8093E7029093E802A093E9020E
:101A8000B093EA0280916E00826080936E0024C061
:101A9000F0928900E09288008093EE029093EF022A
:101AA000A093F002B093F10280916F008260809366
:101AB0006F0012C0E092B3008093F5029093F6029B
:101AC000A093F702B093F802809170008260809337
:101AD000700002C084E06CCF0F900F900F900F90B9
:101AE000CF91DF911F910F91FF90EF90DF90CF90FA
:101AF000BF90AF909F908F907F906F905F903F903E
:101B00002F9008951F920F920FB60F9211242F93CA
:101B10003F938F939F93AF93BF93809100039091D6
:101B20000103A0910203B0910303309104030196D5
:101B3000A11DB11D232F2D5F2D3720F02D570196AC
:101B4000A11DB11D20930403809300039093010312
:101B5000A0930203B09303038091FC029091FD02D5
:101B6000A091FE02B091FF020196A11DB11D8093CC
:101B7000FC029093FD02A093FE02B093FF02BF917E
:101B8000AF919F918F913F912F910F900FBE0F902A
:101B90001F9018959FB7F8942091FC023091FD0298
:101BA0004091FE025091FF0286B5A89B06C08F3F70
:101BB00021F02F5F3F4F4F4F5F4F9FBF542F432F59
:101BC000322F2227280F311D411D511D82E0220F87
:101BD000331F441F551F8A95D1F7B901CA010895D3
:101BE000EF92FF920F931F93CF93DF937B018C01B2
:101BF0000E94CA0DEB010EC00E94CA0D6C1B7D0B2A
:101C0000685E7340C8F30894E108F10801091109FE
:101C1000C851DC4FE114F1040105110569F7DF91AA
:101C2000CF911F910F91FF90EF900895019739F098
:101C3000880F991F880F991F02970197F1F7089550
:101C4000789484B5826084BD84B5816084BD85B597
:101C5000826085BD85B5816085BDEEE6F0E080815E
:101C600081608083E1E8F0E010828081826080837F
:101C7000808181608083E0E8F0E080818160808302
:101C8000E1EBF0E0808184608083E0EBF0E0808134
:101C900081608083EAE7F0E08081846080838081D6
:101CA000826080838081816080838081806880837E
:101CB0001092C1000895982F8E3008F09E509770B2
:101CC00080919F018295880F880F807C892B80935B
:101CD0007C0080917A00806480937A0080917A0001
:101CE00086FDFCCF2091780040917900942F80E010
:101CF00030E0282B392BC9010895CF93DF93482F6B
:101D000050E0CA018F5E9C4FFC01349143505D4FFF
:101D1000FA018491882369F190E0880F991FFC01F2
:101D2000E152FD4FA591B491FC01E751FD4FC591E2
:101D3000D491662351F42FB7F8948C91932F9095FA
:101D400089238C93888189230BC0623061F42FB77B
:101D5000F8948C91932F909589238C938881832B71
:101D600088832FBF06C09FB7F8948C91832B8C93E8
:101D70009FBFDF91CF910895833071F0843028F4B4
:101D80008130A1F0823021F514C08630B1F0873067
:101D9000D1F08430E9F404C0809180008F7703C0D3
:101DA000809180008F7D80938000089584B58F7727
:101DB00002C084B58F7D84BD08958091B0008F7777
:101DC0008093B00008958091B0008F7D8093B00023
:101DD0000895FF920F931F93F62E482F50E0CA01EB
:101DE0008B5D9C4FFC012491CA018F5E9C4FFC01CE
:101DF000149143505D4FFA0104910023C9F022234E
:101E000019F0822F0E94BC0EE02FF0E0EE0FFF1FB2
:101E1000E751FD4FA591B4919FB7F894FF2021F4AD
:101E20008C911095812302C08C91812B8C939FBF44
:101E30001F910F91FF900895EF92FF920F931F93C0
:101E40007B018C01611571058105910529F420E064
:101E500030E040E050E00BC00E941F03A801970152
:101E60000E947B11AC01CB01DA019C01AD01B901EB
:101E7000CA011F910F91FF90EF900895009729F0EC
:101E8000BC0180E090E00E94240308950F931F930B
:101E9000CF93DF93EC018B016F5F7F4F8881998136
:101EA0000E942D03009711F480E005C09983888378
:101EB0001B830A8381E0DF91CF911F910F910895D9
:101EC000CF93DF93EC0188819981892B29F08A8156
:101ED0009B818617970760F4CE010E94460F8823E6
:101EE00041F08C819D81892B19F4E881F981108260
:101EF00081E0DF91CF910895CF93DF93EC0188814A
:101F00009981009711F00E947402198218821D8233
:101F10001C821B821A82DF91CF910895EF92FF926B
:101F20000F931F93CF93DF93EC017B018A01BA01DA
:101F30000E94600F882321F4CE010E947C0F07C00D
:101F40001D830C8388819981B7010E940B04CE0107
:101F5000DF91CF911F910F91FF90EF900895CF9354
:101F6000DF93EC01198218821B821A821D821C8267
:101F70001E826115710551F0DB010D900020E9F71B
:101F80001197A61BB70BAD010E948E0FDF91CF9169
:101F90000895CF93DF93EC01FB018617970761F05B
:101FA000608171816115710529F0448155810E941C
:101FB0008E0F02C00E947C0FCE01DF91CF91089559
:101FC000FC01118210821382128215821482168201
:101FD0000E94C90F0895FC01808191810E947402C2
:101FE000089504D06894B111B5C0089598D088F0D0
:101FF0009F5790F0B92F9927B751A0F0D1F0660FF5
:10200000771F881F991F1AF0BA95C9F712C0B1300F
:1020100081F09FD0B1E008959CC0672F782F88276A
:10202000B85F39F0B93FCCF3869577956795B3954E
:10203000D9F73EF490958095709561957F4F8F4FBD
:102040009F4F0895E89409C097FB3EF490958095C2
:10205000709561957F4F8F4F9F4F9923A9F0F92F6E
:1020600096E9BB279395F695879577956795B795EC
:10207000F111F8CFFAF4BB0F11F460FF1BC06F5FD2
:102080007F4F8F4F9F4F16C0882311F096E911C0E4
:10209000772321F09EE8872F762F05C0662371F005
:1020A00096E8862F70E060E02AF09A95660F771F19
:1020B000881FDAF7880F9695879597F9089597F90D
:1020C0009F6780E870E060E008959FEF80EC0895DE
:1020D00000240A9416161706180609060895002407
:1020E0000A9412161306140605060895092E039481
:1020F000000C11F4882352F0BB0F40F4BF2B11F4F5
:1021000060FF04C06F5F7F4F8F4F9F4F089557FD53
:102110009058440F551F59F05F3F71F04795880F55
:1021200097FB991F61F09F3F79F0879508951216EC
:1021300013061406551FF2CF4695F1DF08C0161698
:1021400017061806991FF1CF869571056105089449
:102150000895E894BB2766277727CB0197F9089560
:102160000BD0C4CFB5DF28F0BADF18F0952309F003
:10217000A6CFABCF1124EECFCADFA0F3959FD1F34A
:10218000950F50E0551F629FF001729FBB27F00D25
:10219000B11D639FAA27F00DB11DAA1F649F66277A
:1021A000B00DA11D661F829F2227B00DA11D621FC9
:1021B000739FB00DA11D621F839FA00D611D221F83
:1021C000749F3327A00D611D231F849F600D211D67
:1021D000822F762F6A2F11249F5750408AF0E1F00A
:1021E00088234AF0EE0FFF1FBB1F661F771F881F53
:1021F00091505040A9F79E3F510570F060CFAACF93
:102200005F3FECF3983EDCF3869577956795B7953D
:10221000F795E7959F5FC1F7FE2B880F911D969567
:10222000879597F90895629FD001739FF001829F6F
:10223000E00DF11D649FE00DF11D929FF00D839F55
:10224000F00D749FF00D659FF00D9927729FB00DF2
:10225000E11DF91F639FB00DE11DF91FBD01CF0105
:1022600011240895AA1BBB1B51E107C0AA1FBB1F65
:10227000A617B70710F0A61BB70B881F991F5A9512
:10228000A9F780959095BC01CD01089597FB092E83
:1022900007260AD077FD04D0E5DF06D000201AF427
:1022A000709561957F4F0895F6F7909581959F4FB2
:1022B0000895A1E21A2EAA1BBB1BFD010DC0AA1F87
:1022C000BB1FEE1FFF1FA217B307E407F50720F09F
:1022D000A21BB30BE40BF50B661F771F881F991F1A
:1022E0001A9469F760957095809590959B01AC0163
:1022F000BD01CF01089597FB092E05260ED057FD8D
:1023000004D0D7DF0AD0001C38F4509540953095A2
:1023100021953F4F4F4F5F4F0895F6F79095809569
:10232000709561957F4F8F4F9F4F0895EE0FFF1F60
:102330000590F491E02D09942F923F924F925F9275
:102340006F927F928F929F92AF92BF92CF92DF92C5
:10235000EF92FF920F931F93CF93DF93CDB7DEB72A
:10236000CA1BDB0B0FB6F894DEBF0FBECDBF0994BE
:102370002A88398848885F846E847D848C849B8415
:10238000AA84B984C884DF80EE80FD800C811B8123
:10239000AA81B981CE0FD11D0FB6F894DEBF0FBE52
:1023A000CDBFED01089513E0CEE3D3E004C0FE01FC
:1023B0000E9498112296C034D107C9F7F894FFCF34
:1023C000416464616D730041726B616E6F6964009A
:1023D00053746172576172730044756B65334400C6
:1023E00053696D70736F6E7300546F6363617461D2
:1023F000004B6579506164203A0020000903000019
:10240000010000005269676874204B6579204F4BCA
:10241000200000005570204B6579204F4B20202074
:1024200020000000446F776E204B6579204F4B20D1
:10243000200000004C656674204B6579204F4B20CE
:102440002000000053656C656374204B6579204F54
:102450004B000000FFFF340A273D17190600FF015B
:102460003200C800900158022003202020202020A4
:1024700020202020202020202020000000000035E7
:10248000078F0A000040001400540000000000EA1A
:0C249000098F0A8009B1099109DA0900DE
:00000001FF
