:100000000C94A0010C94C8010C94C8010C94C80174
:100010000C94C8010C94C8010C94C8010C94A31052
:100020000C94C8010C94C8010C94C8010C94C8012C
:100030000C94C8010C94C8010C94C8010C94C8011C
:100040000C9415130C94C8010C94D40C0C94220D30
:100050000C94C8010C94C8010C94C8010C94C801FC
:100060000C94C8010C94C8010B024B029302BA0213
:1000700000004B029302E402100300004B029302C3
:10008000E402100300004B029302E402100300009C
:100090000B024B029302BA0200000B02BA02700379
:1000A000BA020B02EE011003BA029302100393028C
:1000B0000B02B801BA020B02BA027003BA020B02B9
:1000C000EE011003BA0293020B024B029302BA0232
:1000D00008080808010808080801080808080408B2
:1000E00008080804080808080108040804080402AD
:1000F00008040804080402080408040804020804A8
:100100000804080220060000200649070000E00657
:1001100020067505E00620060810100220080808D1
:100120000802BA02BA02BA02A4037505DD049704F4
:10013000170449077505DD04970417044907750579
:10014000DD049704DD0417040000BA02BA02BA0203
:10015000A4037505DD049704170449077505DD043C
:100160009704170449077505DD049704DD04170497
:100170000808080102080808020408080802040820
:100180000808020408080801020808080204080810
:10019000080204080808027201B8010000EE01001C
:1001A000007201EE0100002A02000072012A020022
:1001B000004B020000720100002A02EE01B8017239
:1001C000014A015D0172018801EE01B801880172E6
:1001D00001B80100007201B8010000EE01000072D8
:1001E00001EE0100002A02000072012A0200004B09
:1001F000020000720100002A02EE01B80172014AF9
:10020000015D0172018801EE01B80188017201B837
:1002100001101010100810101010081010101010FD
:1002200010100810101010101010101010101010D6
:1002300010101010081010101008101010101010CE
:1002400010081010101010101010101010101704BB
:100250002705C805E0062006270517047003E402F9
:10026000E402E402100300000000E402E402E402FD
:100270001003A4031704170417040B020404040852
:100280000404040808080802080808080808020806
:10029000080804A4033F03A4033F03E402BA026E68
:1002A000024B026E02A4033F03A403BA02E4024B12
:1002B000026E024B02BA023F03DC03970475053F4E
:1002C00003BA0210031010022020201002021010A6
:1002D00002080808020808080808040202010200CF
:1002E000000000240027002A00000000002500284C
:1002F000002B000000000023002600290004040455
:1003000004040404040202020202020303030303BE
:10031000030102040810204080010204081020019B
:10032000020408102000000007000201000003047E
:100330000600000000000000000054078E0E4D076C
:1003400011241FBECFEFD8E0DEBFCDBF11E0A0E08B
:10035000B1E0E4EBFEE202C005900D92A63FB107CA
:10036000D9F713E0A6EFB1E001C01D92AA37B1079B
:10037000E1F713E0CEE3D3E004C02297FE010E9430
:100380001217CA33D107C9F70E94E40E0C944D1717
:100390000C940000CF93DF93BC018230910510F4E0
:1003A00062E070E0A0917803B0917903ED01E0E0A4
:1003B000F0E040E050E021C08881998186179707DE
:1003C00069F48A819B81309719F09383828304C0FA
:1003D0009093790380937803FE0134C068177907FE
:1003E00038F44115510519F08417950708F4AC014C
:1003F000FE018A819B819C01E9012097E9F6411564
:100400005105A9F1CA01861B970B049708F4BA019C
:10041000E0E0F0E02AC08D919C9111978417950738
:10042000F9F46417750781F412968D919C911397D6
:10043000309719F09383828304C09093790380935B
:100440007803FD0132964CC0CA01861B970BFD0153
:10045000E80FF91F6193719302978D939C9340C0AD
:10046000FD01828193819C01D9011097A1F68091B1
:10047000760390917703892B41F48091AA019091A2
:10048000AB0190937703809376034091AC01509138
:10049000AD014115510541F44DB75EB78091A801FA
:1004A0009091A901481B590B209176033091770355
:1004B000CA01821B930B8617970780F0AB014E5F32
:1004C0005F4F8417950750F0420F531F50937703E7
:1004D00040937603F9016193719302C0E0E0F0E08C
:1004E000CF01DF91CF910895CF93DF93009709F467
:1004F00050C0EC0122971B821A82A0917803B09120
:100500007903109709F140E050E0AC17BD0708F1FE
:10051000BB83AA83FE0121913191E20FF31FAE1735
:10052000BF0779F48D919C911197280F391F2E5F89
:100530003F4F3983288312968D919C9113979B830B
:100540008A834115510571F4D0937903C0937803E0
:1005500020C012968D919C911397AD01009711F0D8
:10056000DC01D3CFFA01D383C28321913191E20F11
:10057000F31FCE17DF0769F488819981280F391F8F
:100580002E5F3F4FFA01318320838A819B819383C1
:100590008283DF91CF910895A0E0B0E0E2EDF2E038
:1005A0000C9418176C01009729F4CB010E94CA0122
:1005B0006C01C1C08EEF882E8FEF982E8C0C9D1C85
:1005C0008601060F171F0815190508F4B2C0F401BB
:1005D000A081B181A617B707B8F0A530B10508F41E
:1005E000AAC0CD0104978617970708F4A4C01297F4
:1005F000A61BB70BF801A193B193D4016D937C9323
:10060000CF010E94740297C07B01EA1AFB0AEEEF49
:10061000FFEFEE0EFF1E36016A0E7B1EC0917803BF
:10062000D091790344245524AA24BB244AC0C6157A
:10063000D705E1F5488159814E155F05B8F1CA012A
:1006400004978E159F05B0F41296A40FB51FF40100
:10065000B183A0832A813B814114510431F0D2013E
:1006600013963C932E93129766C030937903209390
:10067000780361C08A819B81F80193838283425011
:1006800050404E195F09518340834114510431F0A9
:10069000D20113961C930E93129704C01093790302
:1006A00000937803F4017183608345C08881998148
:1006B000A816B90608F45C012E018A819B819C0171
:1006C000E901209709F0B3CF8091760390917703E9
:1006D00086159705E9F4A616B706D0F42091AC016B
:1006E0003091AD012115310541F42DB73EB7809110
:1006F000A8019091A901281B390B02171307C8F410
:100700001093770300937603D4016D937C9313C009
:10071000CB010E94CA01EC01009759F0F40140811D
:100720005181B6010E94A103C6010E9474026E01AC
:1007300002C0CC24DD24C601CDB7DEB7E0E10C94C5
:100740003417FB01DC0102C001900D924150504072
:10075000D8F70895DC0101C06D9341505040E0F797
:100760000895FB01DC0101900D920020E1F708954E
:10077000AEE0B0E0EEEBF3E00C9424170D891E8997
:1007800086E08C831A8309838FEF9FE79E838D8396
:100790009E01275E3F4FCE0101966F89788DA9019A
:1007A0000E94DC032F813885020F131FF80110828D
:1007B0002E96E4E00C944017ABE0B0E0E2EEF3E0FC
:1007C0000C9416173C012B015A01FC01178216826A
:1007D000838181FD03C06FEF7FEFC6C19AE0892E50
:1007E0001E010894211C311CF3012381F20123FD19
:1007F000859123FF81912F01882309F4B2C18532AD
:1008000039F423FD859123FF81912F01853229F44D
:1008100090E0B3010E94CF05E7CF982FFF24EE248C
:100820009924FFE1FF15D0F09B3269F09C3228F447
:10083000903259F0933291F40EC09D3249F09033CA
:1008400069F441E024C052E0F52A84E0F82A28C087
:1008500098E0F92A25C0E0E1FE2A22C0F7FC29C071
:10086000892F80538A3070F4F6FE05C0989C902C36
:100870001124980E15C0E89CE02C1124E80EF0E23B
:10088000FF2A0EC09E3229F4F6FC6BC140E4F42A24
:1008900007C09C3619F450E8F52A02C0983649F48E
:1008A000F20123FD959123FF91912F01992309F0E6
:1008B000B8CF892F8554833018F08052833038F4B4
:1008C00044E050E0A40EB51E5FE359830FC0933699
:1008D00031F0933779F0933509F056C020C0F50117
:1008E0008081898342E050E0A40EB51E610101E0E1
:1008F00010E012C0F501C080D180F6FC03C06FEF9C
:100900007FEF02C0692D70E042E050E0A40EB51EFA
:10091000C6010E94C4058C015FE7F52214C0F501F1
:10092000C080D180F6FC03C06FEF7FEF02C0692D5D
:1009300070E042E050E0A40EB51EC6010E94B90569
:100940008C0150E8F52AF3FE07C01AC080E290E05F
:10095000B3010E94CF05EA948E2D90E00817190785
:10096000A8F30EC0F601F7FC8591F7FE81916F01A7
:1009700090E0B3010E94CF05E110EA9401501040CD
:100980000115110579F7EAC0943611F0993669F529
:10099000F7FE08C0F501208131814281538184E056
:1009A00090E00AC0F501808191819C01442737FDC8
:1009B0004095542F82E090E0A80EB91E9FE6F922E0
:1009C00057FF09C050954095309521953F4F4F4FA7
:1009D0005F4FE0E8FE2ACA01B901A1012AE030E038
:1009E0000E94FB05D82ED21840C0953729F41F2D40
:1009F0001F7E2AE030E01DC01F2D197F9F3661F059
:100A0000903720F4983509F0ACC00FC0903739F01A
:100A1000983709F0A6C004C028E030E00AC0106191
:100A200014FD146020E130E004C014FD166020E1E4
:100A300032E017FF08C0F5016081718182819381E6
:100A400044E050E008C0F50180819181BC0180E064
:100A500090E042E050E0A40EB51EA1010E94FB050B
:100A6000D82ED2188FE7F82EF122F6FE0BC05EEFDB
:100A7000F522D91438F4F4FE07C0F2FC05C08FEE5D
:100A8000F82202C01D2D01C0192DF4FE0DC0FE017B
:100A9000ED0DF11D8081803319F499EEF92208C023
:100AA0001F5FF2FE05C003C08F2D867809F01F5F1F
:100AB0000F2DF3FC14C0F0FE0FC01E1510F09D2C7E
:100AC0000BC09D2C9E0C911A1E2D06C080E290E05A
:100AD000B3010E94CF051F5F1E15C0F304C01E1591
:100AE00010F4E11A01C0EE2404FF0FC080E390E08F
:100AF000B3010E94CF0502FF1DC001FD03C088E7BE
:100B000090E00EC088E590E00BC0802F867891F0D1
:100B100001FF02C08BE201C080E2F7FC8DE290E0B1
:100B2000B3010E94CF0506C080E390E0B3010E94AC
:100B3000CF059A94D914C0F3DA94F101ED0DF11DAB
:100B4000808190E0B3010E94CF05DD20A9F706C0A7
:100B500080E290E0B3010E94CF05EA94EE20C1F755
:100B600043CEF30166817781CB012B96E2E10C94B1
:100B70003217FC010590615070400110D8F7809544
:100B800090958E0F9F1F0895FC0161507040019059
:100B90000110D8F7809590958E0F9F1F08950F93A1
:100BA0001F93CF93DF938C01EB018B8181FF1BC0DF
:100BB00082FF0DC02E813F818C819D8128173907CE
:100BC00064F4E881F9810193F983E88306C0E8853C
:100BD000F985802F0995892B31F48E819F810196AB
:100BE0009F838E8302C00FEF1FEFC801DF91CF916B
:100BF0001F910F910895FA01AA27283051F1203151
:100C000081F1E8946F936E7F6E5F7F4F8F4F9F4FA0
:100C1000AF4FB1E03ED0B4E03CD0670F781F891FE2
:100C20009A1FA11D680F791F8A1F911DA11D6A0FB0
:100C3000711D811D911DA11D20D009F468943F9163
:100C40002AE0269F11243019305D3193DEF6CF0162
:100C50000895462F4770405D4193B3E00FD0C9F728
:100C6000F6CF462F4F70405D4A3318F0495D31FD95
:100C70004052419302D0A9F7EACFB4E0A6959795E8
:100C8000879577956795BA95C9F7009761057105BE
:100C900008959B01AC010A2E069457954795379508
:100CA0002795BA95C9F7620F731F841F951FA01D62
:100CB0000895CF92EF92FF920F931F93CF93DF93FC
:100CC0008130910509F0CAC06F5F7F4F09F0DDC028
:100CD0006CE0F62E06EF11E0D801EF2D1D92EA959B
:100CE000E9F7C80160E071E00E9429158091AE012A
:100CF0008093FD0188E690E09093FF018093FE01D0
:100D000080ED90E09093010280930002F8013C9600
:100D1000DF018F2D1D928A95E9F7CF0167E071E021
:100D20000E9429158091AF018093090284E091E02F
:100D300090930B0280930A0288E191E090930D0258
:100D400080930C02F8017896DF018F2D1D928A9511
:100D5000E9F7CF0160E171E00E9429158091B001AF
:100D60008093150282E291E090931702809316021D
:100D700080E791E09093190280931802F801B496ED
:100D8000DF018F2D1D928A95E9F7CF0169E171E0AE
:100D90000E9429158091B1018093210287E991E099
:100DA000909323028093220281E192E090932502A6
:100DB00080932402F801F096DF018F2D1D928A9511
:100DC000E9F7CF0160E271E00E9429158091B2013C
:100DD00080932D028EE492E090932F0280932E0256
:100DE0008CE792E09093310280933002045C1F4FB5
:100DF000D8011D92FA94E9F7C80169E271E00E94F6
:100E000029158091B3018093390283E992E0909390
:100E10003B0280933A0285EC92E090933D028093EE
:100E20003C028EE392E068E049E024E005E056E011
:100E3000E52E37E0C32E0E949A0C83E592E06EE324
:100E400072E00E948B098FE592E00E9421098CEAF2
:100E500092E06BE070E00E947D0A17C0892BA9F434
:100E60006F5F7F4F91F48FE592E00E94270983E541
:100E700092E00E949909C2E3D2E0CE010E9465157A
:100E80002C97E1E0CA3EDE07C1F7DF91CF911F91B9
:100E90000F91FF90EF90CF90089580E090E06FEF7A
:100EA0007FEF0E945906089581E090E06FEF7FEF99
:100EB0000E9459060895EF92FF920F931F937C01B1
:100EC0000EE312E0C80160E041E00E94AD0BC801F2
:100ED00069E672E00E942210C80160E041E00E94D1
:100EE000AD0BB701660F771F6E0D7F1D660F771F65
:100EF000660F771F6A507E4FC8010E9438101F91FD
:100F00000F91FF90EF900895809167029091680291
:100F10000197909368028093670297FF09C08091C0
:100F2000B4019091B5010197909368028093670294
:100F300080916702909168020E945B0708958091FA
:100F4000670290916802019690936802809367020D
:100F50002091B4013091B5018217930724F01092CB
:100F600068021092670280916702909168020E9465
:100F70005B0708958F929F92AF92BF92CF92DF92BC
:100F8000EF92FF920F931F93DF93CF93CDB7DEB70E
:100F90002C970FB6F894DEBF0FBECDBF7EE3C72EF1
:100FA00072E0D72EC60160E041E00E94AD0B69E619
:100FB000862E62E0962EC601B4010E942210C60160
:100FC00060E041E00E94AD0BC60161E371E00E9468
:100FD00022108091670290916802BC01660F771F12
:100FE000680F791F660F771F660F771F36EFA32EE6
:100FF00031E0B32E6A0D7B1DC6010E94381080912E
:101000006702909168028C01000F111F080F191FD1
:10101000000F111F000F111F0A0D1B1D7E010894E8
:10102000E11CF11CC701B8010E945A15F801878123
:101030008887808591859A878987828593859C8713
:101040008B878CEA92E0B7010E94810AC7010E9457
:101050006515C60160E041E00E94AD0BC601B40118
:101060000E942210C60160E041E00E94AD0BC60163
:101070006AE371E00E9422102091670230916802B9
:10108000C901880F991F820F931F880F991F880F1E
:10109000991FA80EB91EC601B5010E9438102C96E2
:1010A0000FB6F894DEBF0FBECDBFCF91DF911F9179
:1010B0000F91FF90EF90DF90CF90BF90AF909F90F7
:1010C0008F900895EF92FF920F931F938C01262F1C
:1010D0007A01FA013197332727FD3095B901AF0125
:1010E0000E94AA030E0D1F1D01501040F80110822E
:1010F0001F910F91FF90EF9008950F931F93CF933F
:10110000DF938FE592E00E943509EC012FEF8F3FCE
:10111000920709F446C00AE712E082E3D8011D9263
:101120008A95E9F78FE592E00E943109EDB7FEB7A5
:1011300038970FB6F894FEBF0FBEEDBF3196ADB72E
:10114000BEB712961C930E93119722E431E03383BD
:10115000228395838483D783C6830E94B803EDB727
:10116000FEB738960FB6F894FEBF0FBEEDBF86E30C
:1011700093E0B8010E94251083E592E0BE010E9431
:10118000C809EC01009769F086E393E06BE571E034
:101190000E94221086E393E0BE014AE050E00E94E4
:1011A0000310DF91CF911F910F9108950F931F931B
:1011B00086E393E040E855E260E070E00E945D0D58
:1011C0008EE392E060E142E020E00E94E40B8FE5D4
:1011D00092E060E070E00E942D0903E512E0C80192
:1011E00060E070E00E94A50989E692E060E241E1DA
:1011F00050E00E94620883E090E060E771E04AEB13
:1012000057E020E030E00E94030A9C0182E090E079
:1012100065E771E044E857E00E94030A9C0181E021
:1012200090E06FE771E04FE957E00E94030ABC01CC
:10123000C8010E949F09C8010E94350A1F910F91A1
:101240000895FC0186EC91E0918380830895FC0170
:1012500086EC91E0918380830895FC017783668317
:101260000895FC018481958108950F931F93CF9376
:10127000DF93EC018E810E94EE13AC018C839D8381
:1012800006EB11E0F80120E030E080819181481701
:10129000590740F02F5F3F4F329625303105A9F7AF
:1012A0002FEF3FEF8A819B812817390719F162E3FD
:1012B00070E080E090E00E9483138E810E94EE1324
:1012C000AC0120E030E0F801808191814817590796
:1012D00048F02F5F3F4F0E5F1F4F2530310599F7C4
:1012E0002FEF3FEF8A819B812817390719F03B8345
:1012F0002A8302C02FEF3FEFC901DF91CF911F91E9
:101300000F910895FC0186EC91E091838083CF01D9
:101310000E94F30E0895FC018EEC91E0918380838E
:10132000158214827783668311861086138612864F
:101330000895FC018EEC91E0918380830895FC0177
:1013400071876087738762870895FC017383628366
:101350000895DC011A96ED91FC911B97309729F4C2
:101360001896ED91FC91199711C00680F781E02D38
:10137000309761F41896ED91FC911997309731F000
:1013800080859185009711F0FC01FACFCF01089577
:10139000CF93DF93EC0162307105C9F064307105C1
:1013A00021F06130710549F51DC0EA85FB85309754
:1013B00021F10480F581E02D309709F00995EA8547
:1013C000FB850190F081E02DFD83EC8318C0EA8558
:1013D000FB85309721F080859185009729F48885D9
:1013E000998502C00E94A9099B878A87E881F981B3
:1013F0000680F781E02DCE010995E0E0F0E0CF0115
:10140000DF91CF910895CF92DF92EF92FF920F93E9
:101410001F93CF93DF938C017B016A01E9018EE07A
:1014200090E00E94F60EFC018EE0DF011D928A958D
:10143000E9F711830083F382E282D582C482D187E7
:10144000C08717821682209711F0FF83EE831386E0
:10145000128615861486CF01DF91CF911F910F91CF
:10146000FF90EF90DF90CF900895CF93DF93EC0142
:101470008E819F8160E04A810E94AD0B8E819F81A9
:1014800069E871E00E9422108E819F8160E04A81AC
:101490000E94AD0BEA85FB853097E9F08285938544
:1014A000892B31F08E819F816AE971E00E942210C0
:1014B000EA85FB85628173818E819F810E94221063
:1014C000EA85FB8584859585892B59F08E819F81DE
:1014D0006CE971E004C08E819F816EE971E00E9429
:1014E0002210DF91CF910895FC018EEC91E0918361
:1014F0008083CF010E94F30E0895FC017183608305
:1015000008958F929F92AF92BF92CF92DF92EF9207
:10151000FF920F931F93CF93DF934C016B01DB017D
:1015200017968C91A82EBB24C0E0D0E03BC0CE0122
:10153000880F991FD6011896ED91FC911997E80F25
:10154000F91F259134911A96ED91FC911B97EC0FA0
:10155000FD1FE49188EE93E06E2F70E00E94C016AC
:101560007B010027F7FC0095102FF4018081B90161
:10157000A80197010E94FF10C801B7010E949E15A3
:1015800026E636E646EA5FE30E942A160E946B15BD
:10159000882777FD8095982F0E94831388E00E940A
:1015A0008C102196CA15DB050CF4C1CFDF91CF91C9
:1015B0001F910F91FF90EF90DF90CF90BF90AF9071
:1015C0009F908F9008950F931F938C01FC0186814B
:1015D00060E00E947C1481E090E00E94A913F80171
:1015E000868161E00E947C1481E090E00E94A91352
:1015F000F801868160E00E947C1484E690E00E94FD
:10160000A9131F910F910895CF92DF92EF92FF924D
:101610000F931F93CF93DF93D82EC92E282F392FE6
:10162000C9018C01C0E0D0E0E62EFF24F8018781DB
:1016300061E00E941014B7010C2E02C075956795E9
:101640000A94E2F76170F80187810E947C14219668
:101650000F5F1F4FC830D10549F78D2D9C2D0E947B
:10166000E30ADF91CF911F910F91FF90EF90DF90F0
:10167000CF900895CF92DF92EF92FF920F931F9336
:10168000CF93DF93D82EC92E282F392FC9018C0173
:10169000C0E0D0E0E62EFF24F801878161E00E94DF
:1016A0001014B7010C2E02C0759567950A94E2F7E5
:1016B0006170F80187810E947C1421960F5F1F4F93
:1016C000C430D10549F78D2D9C2D0E94E30ADF918E
:1016D000CF911F910F91FF90EF90DF90CF900895E1
:1016E0001F93CF93DF93EC01162F8C81642F0E9400
:1016F0007C148D818F3F19F060E00E947C148F85EF
:1017000084FF05C0CE01612F0E94040B0EC0612F23
:1017100070E084E0759567958A95E1F7CE010E94A7
:101720003A0BCE01612F0E943A0BDF91CF911F91AE
:10173000089541E00E94700B81E090E0089540E040
:101740000E94700B0895FC016089862F8460808B55
:101750006C60CF010E949F0B0895DF93CF93CDB7AC
:10176000DEB728970FB6F894DEBF0FBECDBF9C0141
:10177000FE013196AEEDB1E088E00D90019281500E
:10178000E1F7F9018389481710F0482F4150E42F01
:10179000F0E0EE0FFF1FEC0FFD1F8181680F606806
:1017A000C9010E949F0B28960FB6F894DEBF0FBEAA
:1017B000CDBFCF91DF91089561E00E949F0B80ED36
:1017C00097E00E94A9130895CF93DF93EC01423074
:1017D00018F08F8588608F874B8B1C8A222329F015
:1017E000413019F48F8584608F8780E593EC0E94E7
:1017F000A9138C8160E00E947C148E8160E00E94BD
:101800007C148D818F3F19F060E00E947C146F85FD
:1018100064FD1DC0CE0163E00E943A0B84E991E1B2
:101820000E94A913CE0163E00E943A0B84E991E182
:101830000E94A913CE0163E00E943A0B86E990E072
:101840000E94A913CE0162E00E943A0B16C06062AA
:10185000CE010E949F0B84E991E10E94A9136F853C
:101860006062CE010E949F0B86E990E00E94A9135E
:101870006F856062CE010E949F0B6F856062CE0112
:101880000E949F0B84E0888BCE010E94A30BCE01A7
:101890000E94DC0B82E0898BCE0166E00E949F0BE8
:1018A000DF91CF9108956F927F928F92AF92CF92F6
:1018B000EF920F931F93DF93CF93CDB7DEB73C0129
:1018C000162F842FF301448325830683E782C08685
:1018D000A18682869D8593879E8594879F8595871F
:1018E0009889968761E00E941014F30185818F3FEB
:1018F00019F061E00E941014F301868161E00E94FA
:101900001014112319F0F301178603C080E1F301CD
:101910008787C30160E141E020E00E94E40BCF91A2
:10192000DF911F910F91EF90CF90AF908F907F90AC
:101930006F9008958F92AF92CF92EF920F931F9373
:10194000CF93DF93DC01362F542F722F102FAE2C44
:101950008C2C13961C921E9212978AED91E0119690
:101960009C938E9300D000D0EDB7FEB73196CDB7E3
:10197000DEB71982118212821382CD0161E0432FFA
:101980002FEF052FE72EC12E0E94530C0F900F90C2
:101990000F900F90DF91CF911F910F91EF90CF900B
:1019A000AF908F90089508951F920F920FB60F92E7
:1019B00011242F933F934F938F939F93EF93FF9314
:1019C0008091C00082FD1DC04091C6002091EE02B2
:1019D0003091EF022F5F3F4F2F7330708091F002F4
:1019E0009091F1022817390771F0E091EE02F09121
:1019F000EF02E255FD4F40833093EF022093EE0259
:101A000002C08091C600FF91EF919F918F914F91FD
:101A10003F912F910F900FBE0F901F901895E0915E
:101A20004203F0914303E05CFF4F8191919120814B
:101A30003181821B930B8F739070892B11F00E9460
:101A4000D30C08951F920F920FB60F9211242F936B
:101A50003F938F939F93EF93FF93209132033091A5
:101A6000330380913403909135032817390731F4FB
:101A70008091C1008F7D8093C10014C0E091340338
:101A8000F0913503EE50FD4F208180913403909109
:101A9000350301968F7390709093350380933403D0
:101AA0002093C600FF91EF919F918F913F912F91CD
:101AB0000F900FBE0F901F901895AF92BF92DF92BC
:101AC000EF92FF920F931F93CF93DF93EC017A0174
:101AD0008B01DD24403081EE580780E0680780E00C
:101AE000780711F0DD24D39491E0A92EB12CEC8974
:101AF000FD89DD2069F0C50108A002C0880F991F8B
:101B00000A94E2F7808360E079E08DE390E005C01D
:101B1000108260E874E88EE190E0A80197010E94CD
:101B2000D316215030404040504056954795379548
:101B3000279580E12030380720F0DD2011F0DD24EA
:101B4000D6CFE889F9893083EA89FB89208319A2F5
:101B5000EE89FF89408121E030E0C9010C8C02C090
:101B6000880F991F0A94E2F7482B4083EE89FF897A
:101B70004081C9010D8C02C0880F991F0A94E2F7B9
:101B8000482B4083EE89FF894081C9010E8C02C039
:101B9000880F991F0A94E2F7482B4083EE89FF894A
:101BA00080810F8C02C0220F331F0A94E2F7209528
:101BB00028232083DF91CF911F910F91FF90EF9009
:101BC000DF90BF90AF900895DC011C96ED91FC91E1
:101BD0001D97E05CFF4F2191319180819181281BFD
:101BE000390B2F733070C9010895DC011C96ED91FB
:101BF000FC911D97E05CFF4F20813181E054F04063
:101C0000DF01AE5BBF4F8D919C911197281739076B
:101C100019F42FEF3FEF07C08D919C91E80FF91F4A
:101C20008081282F30E0C9010895DC011C96ED91D8
:101C3000FC911D97E05CFF4F20813181E054F04022
:101C4000DF01AE5BBF4F8D919C911197281739072B
:101C500019F42FEF3FEF10C08D919C911197E80F71
:101C6000F91F20818D919C91119701968F7390702F
:101C700011969C938E9330E0C9010895DC019196F2
:101C80008C919197882339F05496ED91FC9155975A
:101C9000808186FFF9CF91961C920895CF93DF93B0
:101CA000EC01EE85FF85E05CFF4F20813181E0543F
:101CB000F0402F5F3F4F2F733070DF01AE5BBF4F9F
:101CC0008D919C91119728173907D1F3E05CFF4F54
:101CD00080819181E054F040E80FF91F6083EE8528
:101CE000FF85E05CFF4F31832083EE89FF892081EF
:101CF00081E090E00F8C02C0880F991F0A94E2F7F0
:101D0000282B208381E089A3EC89FD898081806470
:101D1000808381E090E0DF91CF91089510923903A4
:101D20001092380388EE93E0A0E0B0E080933A038D
:101D300090933B03A0933C03B0933D038AEE91E064
:101D400090933703809336038EEA92E09093430397
:101D50008093420382EF92E0909345038093440383
:101D600085EC90E0909347038093460384EC90E0E9
:101D7000909349038093480380EC90E090934B0349
:101D800080934A0381EC90E090934D0380934C0341
:101D900082EC90E090934F0380934E0386EC90E0AA
:101DA000909351038093500384E08093520383E027
:101DB0008093530387E08093540385E08093550319
:101DC00081E0809356030895CF93DF930E94B3136D
:101DD0000E94D608CFE0DDE00E947D082097E1F365
:101DE0000E940F0DF9CF0E94740208950E94CA014B
:101DF0000895CF92DF92EF92FF920F931F93CF93AC
:101E0000DF937C016B018A01C0E0D0E00FC0D601F6
:101E10006D916D01D701ED91FC910190F081E02D64
:101E2000C7010995C80FD91F0150104001151105B0
:101E300071F7CE01DF91CF911F910F91FF90EF903D
:101E4000DF90CF900895EF92FF920F931F938C0134
:101E5000DC01ED91FC910190F081E02D6DE00995A0
:101E60007C01D801ED91FC910190F081E02DC80139
:101E70006AE009959C012E0D3F1DC9011F910F912C
:101E8000FF90EF900895CF93DF93EC0161157105FA
:101E900019F420E030E00FC0DB010D900020E9F7DD
:101EA0001197A61BB70BE881F9810280F381E02D21
:101EB000AD0109959C01C901DF91CF9108954F9221
:101EC0005F927F928F929F92AF92BF92CF92DF925A
:101ED000EF92FF920F931F93DF93CF93CDB7DEB7AF
:101EE000A1970FB6F894DEBF0FBECDBF2C01742EA4
:101EF000CB01223008F42AE019A231E2C32ED12C02
:101F0000CC0EDD1E822E9924AA24BB24672D752FAA
:101F1000A50194010E94D31679018A01C801B70175
:101F2000A50194010E948D16472D461B0894C108F7
:101F3000D1084A3014F4405D01C0495CF601408389
:101F4000E114F1040105110521F07E2C5F2DC8017B
:101F5000DDCFC201B6010E94430FA1960FB6F894DF
:101F6000DEBF0FBECDBFCF91DF911F910F91FF90CC
:101F7000EF90DF90CF90BF90AF909F908F907F9029
:101F80005F904F900895CF92DF92EF92FF920F9360
:101F90001F93CF93DF93EC016A017B01211531057B
:101FA00041F4E881F9810190F081E02D642F0995D9
:101FB0001FC02A303105D1F477FF17C0E881F981BD
:101FC0000190F081E02D6DE209958C0144275527A1
:101FD000BA014C195D096E097F09CE012AE00E9401
:101FE0005F0F9801280F391F04C02AE00E945F0F7D
:101FF0009C01C901DF91CF911F910F91FF90EF904C
:10200000DF90CF900895CF92DF92EF92FF920F93DF
:102010001F936C017B019A010027F7FC0095102F9C
:10202000B801A7010E94C30F8C01C6010E94230FB3
:10203000080F191FC8011F910F91FF90EF90DF90BB
:10204000CF9008950E94430F0895EF92FF920F934F
:102050001F937C010E94430F8C01C7010E94230F34
:10206000080F191FC8011F910F91FF90EF9008955D
:10207000AF92BF92CF92DF92EF92FF920F931F9396
:10208000CF93DF935C016B01EE24FF24C0E0D0E02E
:1020900010C0D501ED91FC9100811181C601BE01F6
:1020A0000E94AF14682FC501F8010995E80EF91ECA
:1020B0002196F60184819581C817D90750F3C7018D
:1020C000DF91CF911F910F91FF90EF90DF90CF9014
:1020D000BF90AF900895813041F0813018F0823088
:1020E000D1F409C010926E00089580916F008D7F29
:1020F00080936F000895809170008D7F80937000B1
:1021000081E08093B0008091B100887F84608093EB
:10211000B1001092B30008951F93182F8091C00151
:10212000811711F09FEF06C0EEEDF2E094918FEF72
:102130008093C001892F0E946B10812F60E00E9464
:102140007C141F9108951F920F920FB60F921124C5
:102150002F933F934F935F936F937F938F939F93AF
:10216000AF93BF93EF93FF938091660390916703C2
:10217000A0916803B09169030097A105B10551F1E1
:10218000E0916A03F0916B03808190916C03892741
:1021900080838091660390916703A0916803B0915A
:1021A0006903181619061A061B06C4F48091660303
:1021B00090916703A0916803B09169030197A10909
:1021C000B1098093660390936703A0936803B0936B
:1021D000690304C08091C0010E948C10FF91EF91AF
:1021E000BF91AF919F918F917F916F915F914F912F
:1021F0003F912F910F900FBE0F901F9018952F9227
:102200003F925F926F927F928F929F92AF92BF9216
:10221000CF92DF92EF92FF920F931F93DF93CF93B2
:1022200000D000D0CDB7DEB7A82F1B0129833A8399
:102230004B835C838091C0018A1721F4EEEDF2E0BC
:10224000549082C08F3F09F0DAC1A093C001EEED37
:10225000F2E054902FEF521609F4D1C181E05816E4
:1022600039F192E0591609F449C0552009F06CC0C3
:1022700014BC15BC84B5826084BD85B5816085BD04
:102280002A2F30E0F901E350FD4FE491F0E0EE0F2A
:10229000FF1FE751FD4F8591949190935D038093CB
:1022A0005C032F5E3C4FF901849180935E034EC026
:1022B000109280001092810080918100886080934C
:1022C0008100809181008160809381002A2F30E01D
:1022D000F901E350FD4FE491F0E0EE0FFF1FE751ED
:1022E000FD4F8591949190936403809363032F5ED7
:1022F0003C4FF90184918093650328C01092B0008F
:102300001092B1008091B00082608093B000809103
:10231000B10081608093B1002A2F30E0F901E350D1
:10232000FD4FE491F0E0EE0FFF1FE751FD4F859167
:10233000949190936B0380936A032F5E3C4FF90155
:10234000849180936C0302C057FC59C18A2F61E0CD
:102350000E941014552021F0F2E05F1609F0BEC073
:1023600031018824992460E072E18AE790E0A401B9
:1023700093010E94F51659016A01860175010894BE
:10238000E108F108010911092FEFE216F104010536
:10239000110509F008F499C060E472E48FE090E060
:1023A000A40193010E94F51679018A010894E108BD
:1023B000F1080109110982E05816C1F49FEFE916EE
:1023C000F1040105110509F008F484C060E970ED1D
:1023D00083E090E0A40193010E94F51679018A013F
:1023E0000894E108F1080109110983E0AFEFEA164A
:1023F000F1040105110509F008F468C068E478EEFD
:1024000081E090E0A40193010E94F51679018A0110
:102410000894E108F10801091109552011F483E03D
:102420001DC0B2E05B1611F084E018C0EFEFEE16AD
:10243000F1040105110509F008F4DFC064E274EF4E
:1024400080E090E0A40193010E94F51679018A01D1
:102450000894E108F1080109110985E0FFEFEF1682
:10246000F1040105110591F188F162E17AE780E05C
:1024700090E0A40193010E94F51679018A01089465
:10248000E108F10801091109552011F086E001C0A9
:1024900084E02FEFE216F10401051105B9F0B0F068
:1024A000C601B50120E034E040E050E00E94F5169E
:1024B00079018A010894E108F10801091109552000
:1024C00011F087E008C085E003C081E0552019F4D1
:1024D00085BD3AC082E08093B10036C05101CC2462
:1024E000DD2460E072E18AE790E0A60195010E9498
:1024F000F51679018A010894E108F108010911092A
:1025000080E0E81680E0F80681E0080780E0180720
:1025100010F491E010C068E478EE81E090E0A6014C
:1025200095010E94F51679018A010894E108F108E5
:102530000109110993E0A1E05A1631F4809181005C
:10254000887F982B9093810089819A81AB81BC818F
:102550000097A105B10529F48FEF9FEFAFEFBFEF13
:1025600013C0220C331CB10180E090E029813A8134
:102570004B815C810E948D1628EE33E040E050E0F4
:102580000E94D316C901DA01E1E05E16A1F0F2E083
:102590005F1619F1552099F5E7BC80935803909385
:1025A0005903A0935A03B0935B0380916E0082603D
:1025B00080936E0024C0F0928900E092880080939E
:1025C0005F0390936003A0936103B09362038091D3
:1025D0006F00826080936F0012C0E092B30080931E
:1025E000660390936703A0936803B0936903809197
:1025F000700082608093700002C084E06CCF0F9006
:102600000F900F900F90CF91DF911F910F91FF903E
:10261000EF90DF90CF90BF90AF909F908F907F9082
:102620006F905F903F902F9008951F920F920FB67A
:102630000F9211242F933F938F939F93AF93BF9348
:102640008091710390917203A0917303B091740310
:10265000309175030196A11DB11D232F2D5F2D37DC
:1026600020F02D570196A11DB11D20937503809375
:10267000710390937203A0937303B09374038091DA
:102680006D0390916E03A0916F03B091700301965A
:10269000A11DB11D80936D0390936E03A0936F03F2
:1026A000B0937003BF91AF919F918F913F912F9104
:1026B0000F900FBE0F901F9018959FB7F894209120
:1026C0006D0330916E0340916F035091700386B596
:1026D000A89B06C08F3F21F02F5F3F4F4F4F5F4FAA
:1026E0009FBF542F432F322F2227280F311D411D0A
:1026F000511D82E0220F331F441F551F8A95D1F7C9
:10270000B901CA010895EF92FF920F931F93CF93DF
:10271000DF937B018C010E945D13EB010EC00E94D0
:102720005D136C1B7D0B685E7340C8F30894E10871
:10273000F10801091109C851DC4FE114F104010548
:10274000110569F7DF91CF911F910F91FF90EF90E5
:102750000895019739F0880F991F880F991F0297E4
:102760000197F1F70895789484B5826084BD84B5AB
:10277000816084BD85B5826085BD85B5816085BD7C
:10278000EEE6F0E0808181608083E1E8F0E0108295
:10279000808182608083808181608083E0E8F0E0D6
:1027A000808181608083E1EBF0E0808184608083C0
:1027B000E0EBF0E0808181608083EAE7F0E08081F7
:1027C0008460808380818260808380818160808357
:1027D0008081806880831092C1000895982F8E3088
:1027E00008F09E5097708091C1018295880F880FE4
:1027F000807C892B80937C0080917A008064809318
:102800007A0080917A0086FDFCCF2091780040917B
:102810007900942F80E030E0282B392BC9010895EE
:10282000CF93DF93482F50E0CA018F5E9C4FFC018D
:10283000349143505D4FFA018491882369F190E00F
:10284000880F991FFC01E152FD4FA591B491FC0145
:10285000E751FD4FC591D491662351F42FB7F894F9
:102860008C91932F909589238C93888189230BC019
:10287000623061F42FB7F8948C91932F909589234F
:102880008C938881832B88832FBF06C09FB7F894D1
:102890008C91832B8C939FBFDF91CF9108958330D0
:1028A00071F0843028F48130A1F0823021F514C019
:1028B0008630B1F08730D1F08430E9F404C08091E3
:1028C00080008F7703C0809180008F7D809380008F
:1028D000089584B58F7702C084B58F7D84BD089537
:1028E0008091B0008F778093B00008958091B00000
:1028F0008F7D8093B0000895FF920F931F93F62E63
:10290000482F50E0CA018B5D9C4FFC012491CA0105
:102910008F5E9C4FFC01149143505D4FFA0104916E
:102920000023C9F0222319F0822F0E944F14E02FB8
:10293000F0E0EE0FFF1FE751FD4FA591B4919FB757
:10294000F894FF2021F48C911095812302C08C9182
:10295000812B8C939FBF1F910F91FF900895FC01D5
:10296000848195816817790748F40190F081E02D02
:10297000309721F0E60FF71F8081089580E00895D9
:102980000F931F93CF93DF93EC018B016F5F7F4F0A
:10299000888199810E94CC02009711F480E005C0E3
:1029A000998388831B830A8381E0DF91CF911F91F4
:1029B0000F910895CF93DF93EC0188819981892B42
:1029C00029F08A819B818617970760F4CE010E94C7
:1029D000C014882341F08C819D81892B19F4E881F2
:1029E000F981108281E0DF91CF910895CF93DF9339
:1029F000EC0188819981009711F00E94740219827C
:102A000018821D821C821B821A82DF91CF91089549
:102A1000EF92FF920F931F93CF93DF93EC017B0113
:102A20008A01BA010E94DA14882321F4CE010E949F
:102A3000F61407C01D830C8388819981B7010E9419
:102A4000B103CE01DF91CF911F910F91FF90EF90D5
:102A50000895CF93DF93EC01198218821B821A82AA
:102A60001D821C821E826115710551F0DB010D90E3
:102A70000020E9F71197A61BB70BAD010E940815BE
:102A8000DF91CF910895CF93DF93EC01FB0186177F
:102A9000970761F0608171816115710529F04481AA
:102AA00055810E94081502C00E94F614CE01DF91E4
:102AB000CF910895FC011182108213821282158237
:102AC000148216820E9443150895FC018081918131
:102AD0000E947402089504D06894B111B5C008959D
:102AE00098D088F09F5790F0B92F9927B751A0F050
:102AF000D1F0660F771F881F991F1AF0BA95C9F792
:102B000012C0B13081F09FD0B1E008959CC0672F12
:102B1000782F8827B85F39F0B93FCCF38695779541
:102B20006795B395D9F73EF490958095709561952A
:102B30007F4F8F4F9F4F0895E89409C097FB3EF455
:102B400090958095709561957F4F8F4F9F4F9923FA
:102B5000A9F0F92F96E9BB279395F6958795779578
:102B60006795B795F111F8CFFAF4BB0F11F460FF38
:102B70001BC06F5F7F4F8F4F9F4F16C0882311F090
:102B800096E911C0772321F09EE8872F762F05C0A4
:102B9000662371F096E8862F70E060E02AF09A953F
:102BA000660F771F881FDAF7880F9695879597F934
:102BB000089597F99F6780E870E060E008959FEFBF
:102BC00080EC089500240A941616170618060906C4
:102BD000089500240A941216130614060506089593
:102BE000092E0394000C11F4882352F0BB0F40F41B
:102BF000BF2B11F460FF04C06F5F7F4F8F4F9F4F5B
:102C0000089557FD9058440F551F59F05F3F71F0DC
:102C10004795880F97FB991F61F09F3F79F0879543
:102C20000895121613061406551FF2CF4695F1DFCC
:102C300008C0161617061806991FF1CF869571055C
:102C4000610508940895E894BB2766277727CB0190
:102C500097F908950BD0C4CFB5DF28F0BADF18F08C
:102C6000952309F0A6CFABCF1124EECFCADFA0F396
:102C7000959FD1F3950F50E0551F629FF001729F11
:102C8000BB27F00DB11D639FAA27F00DB11DAA1F30
:102C9000649F6627B00DA11D661F829F2227B00D7D
:102CA000A11D621F739FB00DA11D621F839FA00D08
:102CB000611D221F749F3327A00D611D231F849F58
:102CC000600D211D822F762F6A2F11249F575040AF
:102CD0008AF0E1F088234AF0EE0FFF1FBB1F661F4A
:102CE000771F881F91505040A9F79E3F510570F003
:102CF00060CFAACF5F3FECF3983EDCF386957795E3
:102D00006795B795F795E7959F5FC1F7FE2B880FFD
:102D1000911D9695879597F90895629FD001739FAD
:102D2000F001829FE00DF11D649FE00DF11D929F67
:102D3000F00D839FF00D749FF00D659FF00D9927A6
:102D4000729FB00DE11DF91F639FB00DE11DF91FCA
:102D5000BD01CF0111240895AA1BBB1B51E107C07F
:102D6000AA1FBB1FA617B70710F0A61BB70B881F1B
:102D7000991F5A95A9F780959095BC01CD010895AA
:102D800097FB092E07260AD077FD04D0E5DF06D091
:102D900000201AF4709561957F4F0895F6F790958D
:102DA00081959F4F0895A1E21A2EAA1BBB1BFD011E
:102DB0000DC0AA1FBB1FEE1FFF1FA217B307E4071A
:102DC000F50720F0A21BB30BE40BF50B661F771F72
:102DD000881F991F1A9469F7609570958095909552
:102DE0009B01AC01BD01CF01089597FB092E05267B
:102DF0000ED057FD04D0D7DF0AD0001C38F4509510
:102E00004095309521953F4F4F4F5F4F0895F6F70E
:102E100090958095709561957F4F8F4F9F4F089546
:102E2000EE0FFF1F0590F491E02D09942F923F9231
:102E30004F925F926F927F928F929F92AF92BF92CA
:102E4000CF92DF92EF92FF920F931F93CF93DF9376
:102E5000CDB7DEB7CA1BDB0B0FB6F894DEBF0FBED3
:102E6000CDBF09942A88398848885F846E847D8420
:102E70008C849B84AA84B984C884DF80EE80FD8022
:102E80000C811B81AA81B981CE0FD11D0FB6F89498
:102E9000DEBF0FBECDBFED01089513E0CEE3D3E05A
:102EA00004C0FE010E9412172296C034D107C9F750
:042EB000F894FFCFC4
:102EB400416464616D730041726B616E6F6964009B
:102EC40053746172576172730044756B65334400C7
:102ED40053696D70736F6E7300546F6363617461D3
:102EE40000506C6179696E672000506C617965648B
:102EF40020004576656E74203E206164632F6B6507
:102F040079203D2025642F25640A00436F6D6D618F
:102F14006E6420616374697661746564203A20008C
:102F2400506C6179005072657620536F6E67004E65
:102F340065787420536F6E670020202020202020A5
:102F4400202020202020202020003C003E003C4E59
:102F54004F204D454E553E0020007A030000340AB0
:102F6400273D171906003200C800900158022003BB
:102F7400FF010000000027098209000000009909F0
:102F8400740AC809350A00000000990BF90E000004
:102F9400400014005400000000004E0EF90EE40D31
:062FA400150EF50D3E0EB6
:00000001FF
