:100000000C94A0010C94C8010C94C8010C94C80174
:100010000C94C8010C94C8010C94C8010C948D1068
:100020000C94C8010C94C8010C94C8010C94C8012C
:100030000C94C8010C94C8010C94C8010C94C8011C
:100040000C94FF120C94C8010C94BE0C0C940C0D73
:100050000C94C8010C94C8010C94C8010C94C801FC
:100060000C94C8010C94C8010B024B029302BA0213
:1000700000004B029302E402100300004B029302C3
:10008000E402100300004B029302E402100300009C
:100090000B024B029302BA0200000B02BA02700379
:1000A000BA020B02EE011003BA029302100393028C
:1000B0000B02B801BA020B02BA027003BA020B02B9
:1000C000EE011003BA0293020B024B029302BA0232
:1000D00008080808010808080801080808080408B2
:1000E00008080804080808080108040804080402AD
:1000F00008040804080402080408040804020804A8
:100100000804080220060000200649070000E00657
:1001100020067505E00620060810100220080808D1
:100120000802BA02BA02BA02A4037505DD049704F4
:10013000170449077505DD04970417044907750579
:10014000DD049704DD0417040000BA02BA02BA0203
:10015000A4037505DD049704170449077505DD043C
:100160009704170449077505DD049704DD04170497
:100170000808080102080808020408080802040820
:100180000808020408080801020808080204080810
:10019000080204080808027201B8010000EE01001C
:1001A000007201EE0100002A02000072012A020022
:1001B000004B020000720100002A02EE01B8017239
:1001C000014A015D0172018801EE01B801880172E6
:1001D00001B80100007201B8010000EE01000072D8
:1001E00001EE0100002A02000072012A0200004B09
:1001F000020000720100002A02EE01B80172014AF9
:10020000015D0172018801EE01B80188017201B837
:1002100001101010100810101010081010101010FD
:1002200010100810101010101010101010101010D6
:1002300010101010081010101008101010101010CE
:1002400010081010101010101010101010101704BB
:100250002705C805E0062006270517047003E402F9
:10026000E402E402100300000000E402E402E402FD
:100270001003A4031704170417040B020404040852
:100280000404040808080802080808080808020806
:10029000080804A4033F03A4033F03E402BA026E68
:1002A000024B026E02A4033F03A403BA02E4024B12
:1002B000026E024B02BA023F03DC03970475053F4E
:1002C00003BA0210031010022020201002021010A6
:1002D00002080808020808080808040202010200CF
:1002E000000000240027002A00000000002500284C
:1002F000002B000000000023002600290004040455
:1003000004040404040202020202020303030303BE
:10031000030102040810204080010204081020019B
:10032000020408102000000007000201000003047E
:10033000060000000000000000004D07780E460790
:1003400011241FBECFEFD8E0DEBFCDBF12E0A0E08A
:10035000B1E0E8E8FEE202C005900D92A830B107D6
:10036000D9F713E0A8E0B2E001C01D92A934B107AB
:10037000E1F713E0CEE3D3E004C02297FE010E9430
:10038000FC16CA33D107C9F70E94CE0E0C9437175A
:100390000C940000CF93DF93BC018230910510F4E0
:1003A00062E070E0A0914703B0914803ED01E0E006
:1003B000F0E040E050E021C08881998186179707DE
:1003C00069F48A819B81309719F09383828304C0FA
:1003D0009093480380934703FE0134C06817790760
:1003E00038F44115510519F08417950708F4AC014C
:1003F000FE018A819B819C01E9012097E9F6411564
:100400005105A9F1CA01861B970B049708F4BA019C
:10041000E0E0F0E02AC08D919C9111978417950738
:10042000F9F46417750781F412968D919C911397D6
:10043000309719F09383828304C09093480380938C
:100440004703FD0132964CC0CA01861B970BFD0184
:10045000E80FF91F6193719302978D939C9340C0AD
:10046000FD01828193819C01D9011097A1F68091B1
:10047000450390914603892B41F48091AA01909104
:10048000AB0190934603809345034091AC0150919A
:10049000AD014115510541F44DB75EB78091A801FA
:1004A0009091A901481B590B2091450330914603B7
:1004B000CA01821B930B8617970780F0AB014E5F32
:1004C0005F4F8417950750F0420F531F5093460318
:1004D00040934503F9016193719302C0E0E0F0E0BD
:1004E000CF01DF91CF910895CF93DF93009709F467
:1004F00050C0EC0122971B821A82A0914703B09151
:100500004803109709F140E050E0AC17BD0708F12F
:10051000BB83AA83FE0121913191E20FF31FAE1735
:10052000BF0779F48D919C911197280F391F2E5F89
:100530003F4F3983288312968D919C9113979B830B
:100540008A834115510571F4D0934803C093470342
:1005500020C012968D919C911397AD01009711F0D8
:10056000DC01D3CFFA01D383C28321913191E20F11
:10057000F31FCE17DF0769F488819981280F391F8F
:100580002E5F3F4FFA01318320838A819B819383C1
:100590008283DF91CF910895A0E0B0E0E2EDF2E038
:1005A0000C9402176C01009729F4CB010E94CA0138
:1005B0006C01C1C08EEF882E8FEF982E8C0C9D1C85
:1005C0008601060F171F0815190508F4B2C0F401BB
:1005D000A081B181A617B707B8F0A530B10508F41E
:1005E000AAC0CD0104978617970708F4A4C01297F4
:1005F000A61BB70BF801A193B193D4016D937C9323
:10060000CF010E94740297C07B01EA1AFB0AEEEF49
:10061000FFEFEE0EFF1E36016A0E7B1EC0914703F0
:10062000D091480344245524AA24BB244AC0C615AB
:10063000D705E1F5488159814E155F05B8F1CA012A
:1006400004978E159F05B0F41296A40FB51FF40100
:10065000B183A0832A813B814114510431F0D2013E
:1006600013963C932E93129766C0309348032093C1
:10067000470361C08A819B81F80193838283425042
:1006800050404E195F09518340834114510431F0A9
:10069000D20113961C930E93129704C01093480333
:1006A00000934703F4017183608345C08881998179
:1006B000A816B90608F45C012E018A819B819C0171
:1006C000E901209709F0B3CF80914503909146034B
:1006D00086159705E9F4A616B706D0F42091AC016B
:1006E0003091AD012115310541F42DB73EB7809110
:1006F000A8019091A901281B390B02171307C8F410
:100700001093460300934503D4016D937C9313C06B
:10071000CB010E94CA01EC01009759F0F40140811D
:100720005181B6010E94A103C6010E9474026E01AC
:1007300002C0CC24DD24C601CDB7DEB7E0E10C94C5
:100740001E17FB01DC0102C001900D924150504088
:10075000D8F70895FB01DC0101900D920020E1F72C
:100760000895AEE0B0E0E7EBF3E00C940E170D89CE
:100770001E8986E08C831A8309838FEF9FE79E830F
:100780008D839E01275E3F4FCE0101966F89788D44
:10079000A9010E94D5032F813885020F131FF8018C
:1007A00010822E96E4E00C942A17ABE0B0E0EBED5B
:1007B000F3E00C9400173C012B015A01FC01178255
:1007C0001682838181FD03C06FEF7FEFC6C19AE07F
:1007D000892E1E010894211C311CF3012381F20192
:1007E00023FD859123FF81912F01882309F4B2C154
:1007F000853239F423FD859123FF81912F018532C4
:1008000029F490E0B3010E94C805E7CF982FFF2498
:10081000EE249924FFE1FF15D0F09B3269F09C3261
:1008200028F4903259F0933291F40EC09D3249F081
:10083000903369F441E024C052E0F52A84E0F82ABC
:1008400028C098E0F92A25C0E0E1FE2A22C0F7FC82
:1008500029C0892F80538A3070F4F6FE05C0989C19
:10086000902C1124980E15C0E89CE02C1124E80E61
:10087000F0E2FF2A0EC09E3229F4F6FC6BC140E480
:10088000F42A07C09C3619F450E8F52A02C09836BD
:1008900049F4F20123FD959123FF91912F019923B2
:1008A00009F0B8CF892F8554833018F080528330F7
:1008B00038F444E050E0A40EB51E5FE359830FC046
:1008C000933631F0933779F0933509F056C020C054
:1008D000F5018081898342E050E0A40EB51E6101DC
:1008E00001E010E012C0F501C080D180F6FC03C029
:1008F0006FEF7FEF02C0692D70E042E050E0A40E80
:10090000B51EC6010E94BD058C015FE7F52214C02B
:10091000F501C080D180F6FC03C06FEF7FEF02C00D
:10092000692D70E042E050E0A40EB51EC6010E94A1
:10093000B2058C0150E8F52AF3FE07C01AC080E228
:1009400090E0B3010E94C805EA948E2D90E008174C
:100950001907A8F30EC0F601F7FC8591F7FE819107
:100960006F0190E0B3010E94C805E110EA940150C4
:1009700010400115110579F7EAC0943611F0993647
:1009800069F5F7FE08C0F50120813181428153816C
:1009900084E090E00AC0F501808191819C014427A8
:1009A00037FD4095542F82E090E0A80EB91E9FE6D7
:1009B000F92257FF09C050954095309521953F4F3A
:1009C0004F4F5F4FE0E8FE2ACA01B901A1012AE0BA
:1009D00030E00E94F405D82ED21840C0953729F493
:1009E0001F2D1F7E2AE030E01DC01F2D197F9F366E
:1009F00061F0903720F4983509F0ACC00FC0903703
:100A000039F0983709F0A6C004C028E030E00AC0E9
:100A1000106114FD146020E130E004C014FD166084
:100A200020E132E017FF08C0F50160817181828109
:100A3000938144E050E008C0F50180819181BC01C0
:100A400080E090E042E050E0A40EB51EA1010E94BB
:100A5000F405D82ED2188FE7F82EF122F6FE0BC03F
:100A60005EEFF522D91438F4F4FE07C0F2FC05C09D
:100A70008FEEF82202C01D2D01C0192DF4FE0DC00D
:100A8000FE01ED0DF11D8081803319F499EEF922FC
:100A900008C01F5FF2FE05C003C08F2D867809F0E5
:100AA0001F5F0F2DF3FC14C0F0FE0FC01E1510F0D9
:100AB0009D2C0BC09D2C9E0C911A1E2D06C080E211
:100AC00090E0B3010E94C8051F5F1E15C0F304C06B
:100AD0001E1510F4E11A01C0EE2404FF0FC080E3DC
:100AE00090E0B3010E94C80502FF1DC001FD03C0D4
:100AF00088E790E00EC088E590E00BC0802F8678F4
:100B000091F001FF02C08BE201C080E2F7FC8DE2B0
:100B100090E0B3010E94C80506C080E390E0B301F5
:100B20000E94C8059A94D914C0F3DA94F101ED0D2E
:100B3000F11D808190E0B3010E94C805DD20A9F776
:100B400006C080E290E0B3010E94C805EA94EE205E
:100B5000C1F743CEF30166817781CB012B96E2E1A9
:100B60000C941C17FC010590615070400110D8F7DF
:100B7000809590958E0F9F1F0895FC0161507040E5
:100B800001900110D8F7809590958E0F9F1F0895C2
:100B90000F931F93CF93DF938C01EB018B8181FF28
:100BA0001BC082FF0DC02E813F818C819D81281743
:100BB000390764F4E881F9810193F983E88306C079
:100BC000E885F985802F0995892B31F48E819F81E5
:100BD00001969F838E8302C00FEF1FEFC801DF9144
:100BE000CF911F910F910895FA01AA27283051F152
:100BF000203181F1E8946F936E7F6E5F7F4F8F4F4E
:100C00009F4FAF4FB1E03ED0B4E03CD0670F781FAC
:100C1000891F9A1FA11D680F791F8A1F911DA11D91
:100C20006A0F711D811D911DA11D20D009F46894CA
:100C30003F912AE0269F11243019305D3193DEF672
:100C4000CF010895462F4770405D4193B3E00FD028
:100C5000C9F7F6CF462F4F70405D4A3318F0495D13
:100C600031FD4052419302D0A9F7EACFB4E0A695F6
:100C70009795879577956795BA95C9F70097610518
:100C8000710508959B01AC010A2E0694579547956E
:100C900037952795BA95C9F7620F731F841F951F63
:100CA000A01D0895CF92EF92FF920F931F93CF93C1
:100CB000DF938130910509F0CAC06F5F7F4F09F063
:100CC000DDC06CE0F62E08E012E0D801EF2D1D9299
:100CD000EA95E9F7C80160E071E00E941315809180
:100CE000AE0180930F0288E690E09093110280930A
:100CF000100280ED90E09093130280931202F801AD
:100D00003C96DF018F2D1D928A95E9F7CF0167E0B0
:100D100071E00E9413158091AF0180931B0284E063
:100D200091E090931D0280931C0288E191E09093E2
:100D30001F0280931E02F8017896DF018F2D1D920D
:100D40008A95E9F7CF0160E171E00E941315809167
:100D5000B0018093270282E291E090932902809370
:100D6000280280E791E090932B0280932A02F801F9
:100D7000B496DF018F2D1D928A95E9F7CF0169E1C5
:100D800071E00E9413158091B1018093330287E9CD
:100D900091E0909335028093340281E192E0909348
:100DA000370280933602F801F096DF018F2D1D92F5
:100DB0008A95E9F7CF0160E271E00E9413158091F6
:100DC000B20180933F028EE492E0909341028093BF
:100DD00040028CE792E09093430280934202045CCD
:100DE0001F4FD8011D92FA94E9F7C80169E271E03A
:100DF0000E9413158091B30180934B0283E992E026
:100E000090934D0280934C0285EC92E090934F02B8
:100E100080934E0280E592E068E049E024E005E03E
:100E200056E0E52E37E0C32E0E94840C85E692E062
:100E300060E572E00E94750981E792E00E940B096B
:100E40008BE792E06BE070E00E94670A17C0892B85
:100E5000A9F46F5F7F4F91F481E792E00E9411093E
:100E600085E692E00E948309C4E4D2E0CE010E94AC
:100E70004F152C97E1E0CC3FDE07C1F7DF91CF9112
:100E80001F910F91FF90EF90CF90089580E090E038
:100E90006FEF7FEF0E945206089581E090E06FEFC0
:100EA0007FEF0E9452060895EF92FF920F931F93D7
:100EB0007C0100E512E0C80160E041E00E94970B70
:100EC000C80162EC71E00E940C10C80160E041E0D2
:100ED0000E94970BB701660F771F6E0D7F1D660F7F
:100EE000771F660F771F685F7D4FC8010E94221031
:100EF0001F910F91FF90EF9008958091790290914A
:100F00007A02019790937A028093790297FF09C041
:100F10008091B4019091B501019790937A028093EA
:100F200079028091790290917A020E945407089583
:100F30008091790290917A02019690937A0280933F
:100F400079022091B4013091B5018217930724F002
:100F500010927A02109279028091790290917A022D
:100F60000E94540708958F929F92AF92BF92CF92A2
:100F7000DF92EF92FF920F931F93DF93CF93CDB742
:100F8000DEB72C970FB6F894DEBF0FBECDBF70E56D
:100F9000C72E72E0D72EC60160E041E00E94970B99
:100FA00062EC862E61E0962EC601B4010E940C1000
:100FB000C60160E041E00E94970BC60161E371E069
:100FC0000E940C108091790290917A02BC01660F08
:100FD000771F680F791F660F771F660F771F38E03E
:100FE000A32E32E0B32E6A0D7B1DC6010E94221093
:100FF0008091790290917A028C01000F111F080FE5
:10100000191F000F111F000F111F0A0D1B1D7E015C
:101010000894E11CF11CC701B8010E944415F801B5
:1010200087818887808591859A878987828593853E
:101030009C878B878BE792E0B7010E946B0AC70100
:101040000E944F15C60160E041E00E94970BC60167
:10105000B4010E940C10C60160E041E00E94970BB1
:10106000C6016AE371E00E940C1020917902309170
:101070007A02C901880F991F820F931F880F991F49
:10108000880F991FA80EB91EC601B5010E94221033
:101090002C960FB6F894DEBF0FBECDBFCF91DF9177
:1010A0001F910F91FF90EF90DF90CF90BF90AF9086
:1010B0009F908F9008950F931F9385E093E040E8F1
:1010C00055E260E070E00E94470D80E592E060E14B
:1010D00042E020E00E94CE0B81E792E060E070E009
:1010E0000E94170905E612E0C80160E070E00E9466
:1010F0008F0983E090E062E471E043EB57E020E089
:1011000030E00E94ED099C0182E090E067E471E02C
:101110004DE757E00E94ED099C0181E090E061E518
:1011200071E048E957E00E94ED09BC01C8010E9446
:101130008909C8010E941F0A1F910F910895EF921B
:10114000FF920F931F93DF93CF93CDB7DEB7E29754
:101150000FB6F894DEBF0FBECDBF81E792E00E94CC
:101160001F097C012FEF8F3F920709F447C08E01C2
:101170000F5F1F4F82E3D8011D928A95E9F781E73F
:1011800092E00E941B09EDB7FEB738970FB6F894AE
:10119000FEBF0FBEEDBF3196ADB7BEB712961C9322
:1011A0000E9311972BE531E033832283958384835B
:1011B000F782E6820E94B103EDB7FEB738960FB60C
:1011C000F894FEBF0FBEEDBF85E093E0B8010E942A
:1011D0000F1085E692E0B7010E94B2098C010097DA
:1011E00069F085E093E064E771E00E940C1085E00F
:1011F00093E0B8014AE050E00E94ED0FE2960FB68E
:10120000F894DEBF0FBECDBFCF91DF911F910F913C
:10121000FF90EF900895FC0187ED91E0918380832A
:101220000895FC0187ED91E0918380830895FC018E
:10123000778366830895FC018481958108950F93D7
:101240001F93CF93DF93EC018E810E94D813AC01E2
:101250008C839D8306EB11E0F80120E030E0808173
:1012600091814817590740F02F5F3F4F3296253044
:101270003105A9F72FEF3FEF8A819B8128173907A6
:1012800019F162E370E080E090E00E946D138E81BE
:101290000E94D813AC0120E030E0F80180819181F8
:1012A0004817590748F02F5F3F4F0E5F1F4F2530FB
:1012B000310599F72FEF3FEF8A819B812817390776
:1012C00019F03B832A8302C02FEF3FEFC901DF9162
:1012D000CF911F910F910895FC0187ED91E09183CB
:1012E0008083CF010E94DD0E0895FC018FED91E017
:1012F000918380831582148277836683118610869A
:10130000138612860895FC018FED91E0918380830E
:101310000895FC0171876087738762870895FC01D7
:10132000738362830895DC011A96ED91FC911B97FB
:10133000309729F41896ED91FC91199711C0068009
:10134000F781E02D309761F41896ED91FC91199793
:10135000309731F080859185009711F0FC01FACF2C
:10136000CF010895CF93DF93EC0162307105C9F08E
:101370006430710521F06130710549F51DC0EA85C1
:10138000FB85309721F10480F581E02D309709F03D
:101390000995EA85FB850190F081E02DFD83EC83C2
:1013A00018C0EA85FB85309721F0808591850097EC
:1013B00029F48885998502C00E9493099B878A87B2
:1013C000E881F9810680F781E02DCE010995E0E002
:1013D000F0E0CF01DF91CF910895CF92DF92EF92AD
:1013E000FF920F931F93CF93DF938C017B016A01D0
:1013F000E9018EE090E00E94E00EFC018EE0DF014A
:101400001D928A95E9F711830083F382E282D582E7
:10141000C482D187C08717821682209711F0FF837C
:10142000EE831386128615861486CF01DF91CF9145
:101430001F910F91FF90EF90DF90CF900895CF9381
:10144000DF93EC018E819F8160E04A810E94970BBF
:101450008E819F8169E871E00E940C108E819F81CE
:1014600060E04A810E94970BEA85FB853097E9F09E
:1014700082859385892B31F08E819F816AE971E0A5
:101480000E940C10EA85FB85628173818E819F81A9
:101490000E940C10EA85FB8584859585892B59F07F
:1014A0008E819F816CE971E004C08E819F816EE91D
:1014B00071E00E940C10DF91CF910895FC018FED37
:1014C00091E091838083CF010E94DD0E0895FC019D
:1014D0007183608308958F929F92AF92BF92CF9253
:1014E000DF92EF92FF920F931F93CF93DF934C0104
:1014F0006B01DB0117968C91A82EBB24C0E0D0E0D5
:101500003BC0CE01880F991FD6011896ED91FC9132
:101510001997E80FF91F259134911A96ED91FC91D6
:101520001B97EC0FFD1FE49188EE93E06E2F70E0A7
:101530000E94AA167B010027F7FC0095102FF401EA
:101540008081B901A80197010E94E910C801B70183
:101550000E94881526E636E646EA5FE30E941416E6
:101560000E945515882777FD8095982F0E946D134E
:1015700088E00E9476102196CA15DB050CF4C1CFD5
:10158000DF91CF911F910F91FF90EF90DF90CF905F
:10159000BF90AF909F908F9008950F931F938C01F1
:1015A000FC01868160E00E94661481E090E00E9468
:1015B0009313F801868161E00E94661481E090E057
:1015C0000E949313F801868160E00E94661484E60D
:1015D00090E00E9493131F910F910895CF92DF9294
:1015E000EF92FF920F931F93CF93DF93D82EC92EC4
:1015F000282F392FC9018C01C0E0D0E0E62EFF244E
:10160000F801878161E00E94FA13B7010C2E02C035
:10161000759567950A94E2F76170F80187810E94D9
:10162000661421960F5F1F4FC830D10549F78D2DE5
:101630009C2D0E94CD0ADF91CF911F910F91FF90B9
:10164000EF90DF90CF900895CF92DF92EF92FF92CC
:101650000F931F93CF93DF93D82EC92E282F392FA6
:10166000C9018C01C0E0D0E0E62EFF24F80187819B
:1016700061E00E94FA13B7010C2E02C075956795C0
:101680000A94E2F76170F80187810E94661421963E
:101690000F5F1F4FC430D10549F78D2D9C2D0E943F
:1016A000CD0ADF91CF911F910F91FF90EF90DF90C6
:1016B000CF9008951F93CF93DF93EC01162F8C8169
:1016C000642F0E9466148D818F3F19F060E00E94A4
:1016D00066148F8584FF05C0CE01612F0E94EE0A3B
:1016E0000EC0612F70E084E0759567958A95E1F7EB
:1016F000CE010E94240BCE01612F0E94240BDF91AA
:10170000CF911F91089541E00E945A0B81E090E033
:10171000089540E00E945A0B0895FC016089862FCD
:101720008460808B6C60CF010E94890B0895DF93E9
:10173000CF93CDB7DEB728970FB6F894DEBF0FBEB4
:10174000CDBF9C01FE013196AFEEB1E088E00D9077
:1017500001928150E1F7F9018389481710F0482F71
:101760004150E42FF0E0EE0FFF1FEC0FFD1F8181D1
:10177000680F6068C9010E94890B28960FB6F8941B
:10178000DEBF0FBECDBFCF91DF91089561E00E9413
:10179000890B80ED97E00E9493130895CF93DF9318
:1017A000EC01423018F08F8588608F874B8B1C8A44
:1017B000222329F0413019F48F8584608F8780E5DA
:1017C00093EC0E9493138C8160E00E9466148E81DA
:1017D00060E00E9466148D818F3F19F060E00E94E6
:1017E00066146F8564FD1DC0CE0163E00E94240B6A
:1017F00084E991E10E949313CE0163E00E94240BDF
:1018000084E991E10E949313CE0163E00E94240BCE
:1018100086E990E00E949313CE0162E00E94240BBF
:1018200016C06062CE010E94890B84E991E10E949A
:1018300093136F856062CE010E94890B86E990E068
:101840000E9493136F856062CE010E94890B6F85A1
:101850006062CE010E94890B84E0888BCE010E94D9
:101860008D0BCE010E94C60B82E0898BCE0166E013
:101870000E94890BDF91CF9108956F927F928F9292
:10188000AF92CF92EF920F931F93DF93CF93CDB789
:10189000DEB73C01162F842FF30144832583068392
:1018A000E782C086A18682869D8593879E859487E0
:1018B0009F8595879889968761E00E94FA13F301C6
:1018C00085818F3F19F061E00E94FA13F301868150
:1018D00061E00E94FA13112319F0F301178603C087
:1018E00080E1F3018787C30160E141E020E00E94CD
:1018F000CE0BCF91DF911F910F91EF90CF90AF90D2
:101900008F907F906F9008958F92AF92CF92EF92C9
:101910000F931F93CF93DF93DC01362F542F722F39
:10192000102FAE2C8C2C13961C921E9212978BEEBD
:1019300091E011969C938E9300D000D0EDB7FEB746
:101940003196CDB7DEB71982118212821382CD0192
:1019500061E0432F2FEF052FE72EC12E0E943D0C93
:101960000F900F900F900F90DF91CF911F910F91DB
:10197000EF90CF90AF908F90089508951F920F929F
:101980000FB60F9211242F933F934F938F939F93F2
:10199000EF93FF938091C00082FD1DC04091C6006F
:1019A0002091BD023091BE022F5F3F4F2F733070E8
:1019B0008091BF029091C0022817390771F0E09121
:1019C000BD02F091BE02E358FD4F40833093BE024A
:1019D0002093BD0202C08091C600FF91EF919F91BC
:1019E0008F914F913F912F910F900FBE0F901F90AD
:1019F0001895E0911103F0911203E05CFF4F819183
:101A0000919120813181821B930B8F739070892B70
:101A100011F00E94BD0C08951F920F920FB60F9205
:101A200011242F933F938F939F93EF93FF932091D4
:101A3000010330910203809103039091040328175E
:101A4000390731F48091C1008F7D8093C10014C0AB
:101A5000E0910303F0910403EF53FD4F2081809147
:101A600003039091040301968F7390709093040385
:101A7000809303032093C600FF91EF919F918F9174
:101A80003F912F910F900FBE0F901F901895AF921E
:101A9000BF92DF92EF92FF920F931F93CF93DF934A
:101AA000EC017A018B01DD24403081EE580780E0A3
:101AB000680780E0780711F0DD24D39491E0A92E27
:101AC000B12CEC89FD89DD2069F0C50108A002C0B8
:101AD000880F991F0A94E2F7808360E079E08DE334
:101AE00090E005C0108260E874E88EE190E0A80103
:101AF00097010E94BD1621503040404050405695FD
:101B000047953795279580E12030380720F0DD2074
:101B100011F0DD24D6CFE889F9893083EA89FB8981
:101B2000208319A2EE89FF89408121E030E0C901BC
:101B30000C8C02C0880F991F0A94E2F7482B40834F
:101B4000EE89FF894081C9010D8C02C0880F991F61
:101B50000A94E2F7482B4083EE89FF894081C9014E
:101B60000E8C02C0880F991F0A94E2F7482B40831D
:101B7000EE89FF8980810F8C02C0220F331F0A94E7
:101B8000E2F7209528232083DF91CF911F910F91B9
:101B9000FF90EF90DF90BF90AF900895DC011C960E
:101BA000ED91FC911D97E05CFF4F21913191808177
:101BB0009181281B390B2F733070C9010895DC0106
:101BC0001C96ED91FC911D97E05CFF4F20813181C7
:101BD000E054F040DF01AE5BBF4F8D919C911197B7
:101BE0002817390719F42FEF3FEF07C08D919C910B
:101BF000E80FF91F8081282F30E0C9010895DC012A
:101C00001C96ED91FC911D97E05CFF4F2081318186
:101C1000E054F040DF01AE5BBF4F8D919C91119776
:101C20002817390719F42FEF3FEF10C08D919C91C1
:101C30001197E80FF91F20818D919C9111970196C2
:101C40008F73907011969C938E9330E0C901089524
:101C5000DC0191968C919197882339F05496ED91FF
:101C6000FC915597808186FFF9CF91961C9208953B
:101C7000CF93DF93EC01EE85FF85E05CFF4F208181
:101C80003181E054F0402F5F3F4F2F733070DF0100
:101C9000AE5BBF4F8D919C91119728173907D1F3F7
:101CA000E05CFF4F80819181E054F040E80FF91F24
:101CB0006083EE85FF85E05CFF4F31832083EE89F2
:101CC000FF89208181E090E00F8C02C0880F991F6E
:101CD0000A94E2F7282B208381E089A3EC89FD890F
:101CE00080818064808381E090E0DF91CF910895CE
:101CF000109208031092070388EE93E0A0E0B0E092
:101D00008093090390930A03A0930B03B0930C03F1
:101D10008BEF91E090930603809305038DE792E0AB
:101D2000909312038093110381EC92E0909314033B
:101D30008093130385EC90E0909316038093150332
:101D400084EC90E0909318038093170380EC90E06C
:101D500090931A038093190381EC90E090931C03F5
:101D600080931B0382EC90E090931E0380931D03ED
:101D700086EC90E09093200380931F0384E080938F
:101D8000210383E08093220387E08093230385E08F
:101D90008093240381E0809325030895CF93DF93FC
:101DA0000E949D130E945B08C9EFDCE00E949F081F
:101DB0002097E1F30E94F90CF9CF0E947402089574
:101DC0000E94CA010895CF92DF92EF92FF920F9383
:101DD0001F93CF93DF937C016B018A01C0E0D0E0B9
:101DE0000FC0D6016D916D01D701ED91FC9101906D
:101DF000F081E02DC7010995C80FD91F015010408F
:101E00000115110571F7CE01DF91CF911F910F914F
:101E1000FF90EF90DF90CF900895EF92FF920F9395
:101E20001F938C01DC01ED91FC910190F081E02D7C
:101E30006DE009957C01D801ED91FC910190F08154
:101E4000E02DC8016AE009959C012E0D3F1DC901D6
:101E50001F910F91FF90EF900895CF93DF93EC01C6
:101E60006115710519F420E030E00FC0DB010D9021
:101E70000020E9F71197A61BB70BE881F9810280D2
:101E8000F381E02DAD0109959C01C901DF91CF914E
:101E900008954F925F927F928F929F92AF92BF92DE
:101EA000CF92DF92EF92FF920F931F93DF93CF9326
:101EB000CDB7DEB7A1970FB6F894DEBF0FBECDBF8A
:101EC0002C01742ECB01223008F42AE019A231E251
:101ED000C32ED12CCC0EDD1E822E9924AA24BB2425
:101EE000672D752FA50194010E94BD1679018A0105
:101EF000C801B701A50194010E947716472D461B22
:101F00000894C108D1084A3014F4405D01C0495C0E
:101F1000F6014083E114F1040105110521F07E2C46
:101F20005F2DC801DDCFC201B6010E942D0FA19621
:101F30000FB6F894DEBF0FBECDBFCF91DF911F91DA
:101F40000F91FF90EF90DF90CF90BF90AF909F9058
:101F50008F907F905F904F900895CF92DF92EF9295
:101F6000FF920F931F93CF93DF93EC016A017B01E4
:101F70002115310541F4E881F9810190F081E02DCE
:101F8000642F09951FC02A303105D1F477FF17C09F
:101F9000E881F9810190F081E02D6DE209958C01D5
:101FA00044275527BA014C195D096E097F09CE01F6
:101FB0002AE00E94490F9801280F391F04C02AE027
:101FC0000E94490F9C01C901DF91CF911F910F9190
:101FD000FF90EF90DF90CF900895CF92DF92EF9235
:101FE000FF920F931F936C017B019A010027F7FC6E
:101FF0000095102FB801A7010E94AD0F8C01C601FA
:102000000E940D0F080F191FC8011F910F91FF901B
:10201000EF90DF90CF9008950E942D0F0895EF92DA
:10202000FF920F931F937C010E942D0F8C01C7011B
:102030000E940D0F080F191FC8011F910F91FF90EB
:10204000EF900895AF92BF92CF92DF92EF92FF92FE
:102050000F931F93CF93DF935C016B01EE24FF245A
:10206000C0E0D0E010C0D501ED91FC91008111815C
:10207000C601BE010E949914682FC501F801099597
:10208000E80EF91E2196F60184819581C817D907BB
:1020900050F3C701DF91CF911F910F91FF90EF9007
:1020A000DF90CF90BF90AF900895813041F08130A4
:1020B00018F08230D1F409C010926E00089580911A
:1020C0006F008D7F80936F000895809170008D7FE9
:1020D0008093700081E08093B0008091B100887F90
:1020E00084608093B1001092B30008951F93182F5D
:1020F0008091C001811711F09FEF06C0EEEDF2E074
:1021000094918FEF8093C001892F0E945510812FE9
:1021100060E00E9466141F9108951F920F920FB6FF
:102120000F9211242F933F934F935F936F937F935D
:102130008F939F93AF93BF93EF93FF93809135035A
:1021400090913603A0913703B09138030097A10511
:10215000B10551F1E0913903F0913A0380819091FA
:102160003B03892780838091350390913603A091AA
:102170003703B0913803181619061A061B06C4F463
:102180008091350390913603A0913703B0913803C5
:102190000197A109B1098093350390933603A09369
:1021A0003703B093380304C08091C0010E947610B9
:1021B000FF91EF91BF91AF919F918F917F916F911F
:1021C0005F914F913F912F910F900FBE0F901F90F5
:1021D00018952F923F925F926F927F928F929F926B
:1021E000AF92BF92CF92DF92EF92FF920F931F9325
:1021F000DF93CF9300D000D0CDB7DEB7A82F1B015F
:1022000029833A834B835C838091C0018A1721F430
:10221000EEEDF2E0549082C08F3F09F0DAC1A09356
:10222000C001EEEDF2E054902FEF521609F4D1C147
:1022300081E0581639F192E0591609F449C0552049
:1022400009F06CC014BC15BC84B5826084BD85B532
:10225000816085BD2A2F30E0F901E350FD4FE49104
:10226000F0E0EE0FFF1FE751FD4F859194919093A1
:102270002C0380932B032F5E3C4FF90184918093B4
:102280002D034EC010928000109281008091810039
:1022900088608093810080918100816080938100BB
:1022A0002A2F30E0F901E350FD4FE491F0E0EE0F0A
:1022B000FF1FE751FD4F85919491909333038093D5
:1022C00032032F5E3C4FF90184918093340328C080
:1022D0001092B0001092B1008091B00082608093A3
:1022E000B0008091B10081608093B1002A2F30E06E
:1022F000F901E350FD4FE491F0E0EE0FFF1FE751CD
:10230000FD4F8591949190933A03809339032F5E0A
:102310003C4FF901849180933B0302C057FC59C1A3
:102320008A2F61E00E94FA13552021F0F2E05F1637
:1023300009F0BEC031018824992460E072E18AE787
:1023400090E0A40193010E94DF1659016A01860101
:1023500075010894E108F108010911092FEFE2164F
:10236000F1040105110509F008F499C060E472E474
:102370008FE090E0A40193010E94DF1679018A01A9
:102380000894E108F1080109110982E05816C1F426
:102390009FEFE916F1040105110509F008F484C066
:1023A00060E970ED83E090E0A40193010E94DF16E4
:1023B00079018A010894E108F1080109110983E013
:1023C000AFEFEA16F1040105110509F008F468C041
:1023D00068E478EE81E090E0A40193010E94DF16AA
:1023E00079018A010894E108F108010911095520D1
:1023F00011F483E01DC0B2E05B1611F084E018C058
:10240000EFEFEE16F1040105110509F008F4DFC045
:1024100064E274EF80E090E0A40193010E94DF1673
:1024200079018A010894E108F1080109110985E0A0
:10243000FFEFEF16F1040105110591F188F162E15A
:102440007AE780E090E0A40193010E94DF16790111
:102450008A010894E108F10801091109552011F0D9
:1024600086E001C084E02FEFE216F10401051105BA
:10247000B9F0B0F0C601B50120E034E040E050E032
:102480000E94DF1679018A010894E108F108010928
:102490001109552011F087E008C085E003C081E0F4
:1024A000552019F485BD3AC082E08093B10036C052
:1024B0005101CC24DD2460E072E18AE790E0A601BE
:1024C00095010E94DF1679018A010894E108F1085C
:1024D0000109110980E0E81680E0F80681E00807AC
:1024E00080E0180710F491E010C068E478EE81E015
:1024F00090E0A60195010E94DF1679018A010894F7
:10250000E108F1080109110993E0A1E05A1631F43C
:1025100080918100887F982B9093810089819A8196
:10252000AB81BC810097A105B10529F48FEF9FEF26
:10253000AFEFBFEF13C0220C331CB10180E090E07D
:1025400029813A814B815C810E94771628EE33E025
:1025500040E050E00E94BD16C901DA01E1E05E16DC
:10256000A1F0F2E05F1619F1552099F5E7BC8093D0
:10257000270390932803A0932903B0932A03809103
:102580006E00826080936E0024C0F0928900E09219
:10259000880080932E0390932F03A0933003B09371
:1025A000310380916F00826080936F0012C0E092CF
:1025B000B3008093350390933603A0933703B09311
:1025C00038038091700082608093700002C084E0C4
:1025D0006CCF0F900F900F900F90CF91DF911F91C4
:1025E0000F91FF90EF90DF90CF90BF90AF909F90B2
:1025F0008F907F906F905F903F902F9008951F92E3
:102600000F920FB60F9211242F933F938F939F93A6
:10261000AF93BF938091400390914103A0914203F7
:10262000B0914303309144030196A11DB11D232FA6
:102630002D5F2D3720F02D570196A11DB11D209340
:1026400044038093400390934103A0934203B093CB
:10265000430380913C0390913D03A0913E03B091D0
:102660003F030196A11DB11D80933C0390933D0350
:10267000A0933E03B0933F03BF91AF919F918F9181
:102680003F912F910F900FBE0F901F9018959FB7FD
:10269000F89420913C0330913D0340913E035091CA
:1026A0003F0386B5A89B06C08F3F21F02F5F3F4FA9
:1026B0004F4F5F4F9FBF542F432F322F2227280F9A
:1026C000311D411D511D82E0220F331F441F551F34
:1026D0008A95D1F7B901CA010895EF92FF920F933D
:1026E0001F93CF93DF937B018C010E944713EB0173
:1026F0000EC00E9447136C1B7D0B685E7340C8F3CD
:102700000894E108F10801091109C851DC4FE114EE
:10271000F1040105110569F7DF91CF911F910F9128
:10272000FF90EF900895019739F0880F991F880F57
:10273000991F02970197F1F70895789484B5826004
:1027400084BD84B5816084BD85B5826085BD85B555
:10275000816085BDEEE6F0E0808181608083E1E804
:10276000F0E010828081826080838081816080833C
:10277000E0E8F0E0808181608083E1EBF0E080813F
:1027800084608083E0EBF0E0808181608083EAE711
:10279000F0E080818460808380818260808380819A
:1027A000816080838081806880831092C100089559
:1027B000982F8E3008F09E5097708091C1018295BD
:1027C000880F880F807C892B80937C0080917A0011
:1027D000806480937A0080917A0086FDFCCF2091FE
:1027E000780040917900942F80E030E0282B392B3D
:1027F000C9010895CF93DF93482F50E0CA018F5E3F
:102800009C4FFC01349143505D4FFA018491882321
:1028100069F190E0880F991FFC01E152FD4FA591ED
:10282000B491FC01E751FD4FC591D491662351F459
:102830002FB7F8948C91932F909589238C9388814E
:1028400089230BC0623061F42FB7F8948C91932FD9
:10285000909589238C938881832B88832FBF06C012
:102860009FB7F8948C91832B8C939FBFDF91CF916E
:102870000895833071F0843028F48130A1F08230E3
:1028800021F514C08630B1F08730D1F08430E9F4FE
:1028900004C0809180008F7703C0809180008F7D7D
:1028A00080938000089584B58F7702C084B58F7DB2
:1028B00084BD08958091B0008F778093B000089513
:1028C0008091B0008F7D8093B0000895FF920F93A8
:1028D0001F93F62E482F50E0CA018B5D9C4FFC01E0
:1028E0002491CA018F5E9C4FFC01149143505D4FAF
:1028F000FA0104910023C9F0222319F0822F0E94CB
:102900003914E02FF0E0EE0FFF1FE751FD4FA591C6
:10291000B4919FB7F894FF2021F48C9110958123F6
:1029200002C08C91812B8C939FBF1F910F91FF90C0
:102930000895FC01848195816817790748F4019016
:10294000F081E02D309721F0E60FF71F8081089588
:1029500080E008950F931F93CF93DF93EC018B01D9
:102960006F5F7F4F888199810E94CC02009711F49C
:1029700080E005C0998388831B830A8381E0DF910F
:10298000CF911F910F910895CF93DF93EC01888130
:102990009981892B29F08A819B818617970760F49A
:1029A000CE010E94AA14882341F08C819D81892B3D
:1029B00019F4E881F981108281E0DF91CF910895C7
:1029C000CF93DF93EC0188819981009711F00E94E9
:1029D0007402198218821D821C821B821A82DF9166
:1029E000CF910895EF92FF920F931F93CF93DF93B0
:1029F000EC017B018A01BA010E94C414882321F4EE
:102A0000CE010E94E01407C01D830C838881998148
:102A1000B7010E94AA03CE01DF91CF911F910F91C0
:102A2000FF90EF900895CF93DF93EC011982188205
:102A30001B821A821D821C821E826115710551F053
:102A4000DB010D900020E9F71197A61BB70BAD0134
:102A50000E94F214DF91CF910895CF93DF93EC01A0
:102A6000FB018617970761F060817181611571051F
:102A700029F0448155810E94F21402C00E94E014A2
:102A8000CE01DF91CF910895FC0111821082138253
:102A900012821582148216820E942D150895FC015F
:102AA000808191810E947402089504D06894B111CC
:102AB000B5C0089598D088F09F5790F0B92F992706
:102AC000B751A0F0D1F0660F771F881F991F1AF039
:102AD000BA95C9F712C0B13081F09FD0B1E0089526
:102AE0009CC0672F782F8827B85F39F0B93FCCF3A7
:102AF000869577956795B395D9F73EF4909580952F
:102B0000709561957F4F8F4F9F4F0895E89409C04E
:102B100097FB3EF490958095709561957F4F8F4F10
:102B20009F4F9923A9F0F92F96E9BB279395F69526
:102B3000879577956795B795F111F8CFFAF4BB0FA4
:102B400011F460FF1BC06F5F7F4F8F4F9F4F16C008
:102B5000882311F096E911C0772321F09EE8872F92
:102B6000762F05C0662371F096E8862F70E060E04E
:102B70002AF09A95660F771F881FDAF7880F9695C7
:102B8000879597F9089597F99F6780E870E060E06E
:102B900008959FEF80EC089500240A9416161706F6
:102BA00018060906089500240A941216130614063E
:102BB00005060895092E0394000C11F4882352F0A1
:102BC000BB0F40F4BF2B11F460FF04C06F5F7F4F59
:102BD0008F4F9F4F089557FD9058440F551F59F040
:102BE0005F3F71F04795880F97FB991F61F09F3FFA
:102BF00079F087950895121613061406551FF2CF23
:102C00004695F1DF08C0161617061806991FF1CF72
:102C100086957105610508940895E894BB27662799
:102C20007727CB0197F908950BD0C4CFB5DF28F0F3
:102C3000BADF18F0952309F0A6CFABCF1124EECF61
:102C4000CADFA0F3959FD1F3950F50E0551F629F07
:102C5000F001729FBB27F00DB11D639FAA27F00DF5
:102C6000B11DAA1F649F6627B00DA11D661F829F1C
:102C70002227B00DA11D621F739FB00DA11D621F01
:102C8000839FA00D611D221F749F3327A00D611D1E
:102C9000231F849F600D211D822F762F6A2F112400
:102CA0009F5750408AF0E1F088234AF0EE0FFF1F53
:102CB000BB1F661F771F881F91505040A9F79E3F8A
:102CC000510570F060CFAACF5F3FECF3983EDCF384
:102CD000869577956795B795F795E7959F5FC1F7C7
:102CE000FE2B880F911D9695879597F90895629F01
:102CF000D001739FF001829FE00DF11D649FE00DF4
:102D0000F11D929FF00D839FF00D749FF00D659F54
:102D1000F00D9927729FB00DE11DF91F639FB00D53
:102D2000E11DF91FBD01CF0111240895AA1BBB1B92
:102D300051E107C0AA1FBB1FA617B70710F0A61BBB
:102D4000B70B881F991F5A95A9F780959095BC01DC
:102D5000CD01089597FB092E07260AD077FD04D0F0
:102D6000E5DF06D000201AF4709561957F4F089535
:102D7000F6F7909581959F4F0895A1E21A2EAA1B10
:102D8000BB1BFD010DC0AA1FBB1FEE1FFF1FA2171B
:102D9000B307E407F50720F0A21BB30BE40BF50B18
:102DA000661F771F881F991F1A9469F760957095A1
:102DB000809590959B01AC01BD01CF01089597FBD3
:102DC000092E05260ED057FD04D0D7DF0AD0001CEF
:102DD00038F450954095309521953F4F4F4F5F4FB8
:102DE0000895F6F790958095709561957F4F8F4F78
:102DF0009F4F0895EE0FFF1F0590F491E02D099469
:102E00002F923F924F925F926F927F928F929F92FA
:102E1000AF92BF92CF92DF92EF92FF920F931F93E8
:102E2000CF93DF93CDB7DEB7CA1BDB0B0FB6F89499
:102E3000DEBF0FBECDBF09942A88398848885F84D9
:102E40006E847D848C849B84AA84B984C884DF804A
:102E5000EE80FD800C811B81AA81B981CE0FD11D2E
:102E60000FB6F894DEBF0FBECDBFED01089513E09D
:102E7000CEE3D3E004C0FE010E94FC162296C034CB
:082E8000D107C9F7F894FFCF58
:102E8800416464616D730041726B616E6F696400C7
:102E980053746172576172730044756B65334400F3
:102EA80053696D70736F6E7300546F6363617461FF
:102EB80000506C6179696E672000506C61796564B7
:102EC8002000506C6179005072657620536F6E67F0
:102ED800004E65787420536F6E67004576656E7492
:102EE800203E206164632F6B6579203D2025642F87
:102EF80025640A00436F6D6D616E642061637469B7
:102F08007661746564203A2000202020202020204B
:102F1800202020202020202020003C003E003C4E85
:102F28004F204D454E553E00200049030000340A0D
:102F3800273D171906003200C800900158022003E7
:102F4800FF012020202020202020202020202020B9
:102F58002020000000000011096C09000000008317
:102F6800095E0AB2091F0A00000000830BE30E0085
:102F78000040001400540000000000380EE30ECE9C
:082F88000DFF0DDF0D280E0006
:00000001FF
